:100000000C94E3000C9431180C9458180C940B01C8
:100010000C940B010C940B010C9432030C940B0107
:100020000C940B010C940B010C940B010C940B0120
:100030000C940B010C940B010C940B010C940B0110
:100040000C9480180C940B010C949C1B0C94CE1BEC
:100050000C940B010C940B010C940B010C940B01F0
:100060000C940B010C940B01005EBCE2613FDD833C
:10007000C29C7E20A3FD1F419DC3217FFCA2401E88
:100080005F01E3BD3E6082DC237D9FC1421CFEA078
:10009000E1BF5D0380DE3C62BEE0025CDF81633D68
:1000A0007C22C09E1D43A1FF4618FAA427799BC558
:1000B00084DA3866E5BB5907DB856739BAE4065848
:1000C0001947A5FB7826C49A653BD987045AB8E638
:1000D000A7F91B45C6987A24F8A6441A99C7257B28
:1000E0003A6486D85B05E7B98CD2306EEDB3510F18
:1000F0004E10F2AC2F7193CD114FADF3702ECC9208
:10010000D38D6F31B2EC0E50AFF1134DCE90722CF7
:100110006D33D18F0C52B0EE326C8ED0530DEFB1E7
:10012000F0AE4C1291CF2D73CA947628ABF51749D7
:100130000856B4EA6937D58B5709EBB536688AD4C7
:1001400095CB2977F4AA4816E9B7550B88D6346AB7
:100150002B7597C94A14F6A8742AC896154BA9F7A7
:10016000B6E80A54D7896B35000000080002010088
:100170000003040700000000000000000102040862
:100180001020408001020408102001020408102001
:10019000040404040404040402020202020203032D
:1001A00003030303000000002300260029000000D1
:1001B0000000250028002B0000000000240027007C
:1001C0002A00F40EFE1B11241FBECFEFD8E0DEBFC5
:1001D000CDBF12E0A0E0B1E0E8E4F3E402C0059096
:1001E0000D92A238B107D9F724E0A2E8B2E001C02D
:1001F0001D92AD39B207E1F711E0C6ECD1E004C0C1
:100200002297FE010E94E520C23CD107C9F70E9457
:100210006A110C94A2210C940000EF92FF920F93AC
:10022000FC018091E203818362834683058327700A
:100230008481807F822B98E0E99E700111248E29B1
:100240008F7E8483CF010F91FF90EF90089580916E
:10025000EF0384608093EF038091F00380788093B4
:10026000F003E091E003F091E103309709F0099485
:100270000895809124010E941F18809123018F3FCF
:1002800021F0809123010E941F1880912401809306
:1002900025010895809123010E941F188091240157
:1002A0008F3F21F0809124010E941F18809123012B
:1002B000809325010895EFEEF3E08081877F8F7EA4
:1002C00080831092EB031092EC031092ED031092D6
:1002D000EE0343E050E060E070E082EE93E00C94C7
:1002E0005A210F931F93CF93DF931F92CDB7DEB7A1
:1002F0008C0169830E946A216981681741F0C801F5
:100300000F90DF91CF911F910F910C9494210F903A
:10031000DF91CF911F910F9108958EBD00000DB414
:1003200007FEFDCF8EB50895BF92CF92DF92EF9278
:10033000FF920F931F93CF93DF93C82F8B01C42E8F
:10034000B22E8091F503882399F03FB7F8948091FD
:10035000F503813059F48DB38093F3038DB39091FD
:10036000F403909598239DBB3FBF02C03093F303E5
:1003700081E58CBD81E08DBD2A988AE090E00E94E5
:1003800033198C2F0E948D01D82EE801CC20B9F0B2
:10039000BB2051F08FEF0E948D01D82E0115110561
:1003A00061F08883219609C07E018FEFE81AF80A70
:1003B00088810E948D01D82EE701CA94E7CF2A9A3E
:1003C0008091F503882361F09FB7F8942091F5039D
:1003D0008091F303213019F48DBB9FBF01C08FBF03
:1003E0008AE090E00E9433198D2DDF91CF911F910B
:1003F0000F91FF90EF90DF90CF90BF900895CF9333
:10040000DF931F92CDB7DEB7698320E041E0BE01E4
:100410006F5F7F4F0E9494010F90DF91CF910895FD
:1004200029986CE080E20C94FF019091F003892FF1
:100430008077803759F0892F82958F708F5F877012
:100440008295807F9F78982B9093F0038091EF03A3
:100450008B7F8F7E8093EF0380E090E0892B21F0EB
:1004600087E690E00E9400000C9410026FE080E2AA
:100470000E94FF01609105016F3F19F08AE20E941E
:10048000FF01299A089521E041E060E070E00C94BA
:100490009401CF9386E00E944302C82F85E00E941A
:1004A000430291E08C3409F090E081E0C73209F01A
:1004B00080E08923CF91089520E040E060E070E083
:1004C0000C949401EF92FF921F93CF93DF931F92AE
:1004D000CDB7DEB7182F7B01299882E890E04983D9
:1004E0000E9433196EE080E20E94FF0184E690E0F2
:1004F0000E943319612F8AE20E94FF01612F80E37D
:100500000E94FF0181EE0E945C0249811F3F11F4AD
:1005100080EB01C080EA20E0B7010E949401299A93
:10052000E12CF12C8FEF0E945C02182F807321F4D4
:1005300081E0E81AF108B1F7299860E387E20E94A8
:10054000FF0114FF03C081EE0E945C020E9436028C
:1005500015FB882780F90F90DF91CF911F91FF90B5
:10056000EF9008951F93CF93DF93EC0121E041E0DA
:1005700060E070E080E60E949401182F813220F044
:1005800082EE0E945C0210E021E0412FBE0181E674
:100590000E94940160E487E20E94FF01812FDF91B5
:1005A000CF911F910895CF93219A229A0E947E1194
:1005B00029982A9A6EE080E20E94FF0165E070E0CF
:1005C00080E090E00E94F91863E083E20E94FF015E
:1005D0006FE584E20E94FF016CE485E20E94FF0166
:1005E00067E286E20E94FF0163E780E50E94FF0167
:1005F00066E08DE30E94FF010E944902C82F882314
:1006000071F162E082E20E94FF0160E081E20E94FB
:10061000FF0163E08CE30E94FF018FEF80930601EE
:1006200020E045E066E071E08BE20E94940120E06A
:1006300045E066E071E08AE20E94940120E045E036
:1006400066E071E080E30E94940182EE0E945C0209
:1006500081EE0E945C0260E787E20E94FF018C2F1E
:10066000CF9108951F920F920FB60F9211240F9001
:100670000FBE0F901F90189520917A002F7720932E
:100680007A00409160008A309105B9F083FF02C082
:1006900028E201C028E08770822B28E130E00FB605
:1006A000F894A895209360000FBE8093600080911D
:1006B000600080658093600008C088E10FB6F89400
:1006C00080936000109260000FBE83B7817F8460CA
:1006D00083BFF89483B7816083BF85B7806685BF89
:1006E0008F7D85BF7894889583B78E7F83BFF8947C
:1006F000A8958091600088618093600040936000BD
:10070000789480917A00806880937A000895FC0143
:1007100085818F50833010F481E0089580E0089542
:100720002091E5033091E6032817390751F0209115
:10073000EF032F712093EF039093E6038093E5037B
:1007400005C08091EF03805E8093EF03E091E503A5
:10075000F091E6030190F081E02D309709F00995C2
:100760000E94CA186093E7037093E8038093E9033B
:100770009093EA0308958091F0038F70863020F003
:100780008BE191E00C94900308950F931F930E94C6
:10079000CA180091E7031091E8032091E903309112
:1007A000EA03601B710B820B930B1F910F9108954D
:1007B0000E94C503613D77408105910520F4809139
:1007C000EF0381FF08958091E3038F3F81F08091D3
:1007D000EF038E7F8093EF0380E090E0892B21F080
:1007E00085E090E00E94000087E191E011C08091D7
:1007F000EF03803618F48BE191E00AC080E090E0CE
:10080000892B21F088E690E00E9400008BE091E0C7
:100810000C9490038091E2038F3F59F080E090E0C8
:10082000892B21F087E090E00E94000083E191E0B5
:1008300018C00E94C503613D77408105910598F07D
:100840008091EF03803618F487E191E00AC080E0E0
:1008500090E0892B21F089E690E00E9400008BE077
:1008600091E00C94900308958091F1038F3FA1F0E3
:100870000E94CA186093EB037093EC038093ED031E
:100880009093EE038091F1039091E4038913809398
:10089000E4038FE091E01BC00E94C503613D7740F7
:1008A00081059105B0F08091EF03803618F483E163
:1008B00091E00DC0877F8093EF0380E090E0892B6B
:1008C00021F08AE690E00E9400008BE191E00C9418
:1008D00090030895E091E503F091E6030280F3812F
:1008E000E02D309709F0099408959091F0039077E6
:1008F00081E0903709F080E00895CF92DF92EF9287
:10090000FF920E94C5036B017C010E94750488233D
:1009100029F080E69AEEA0E0B0E004C080E197E222
:10092000A0E0B0E08C159D05AE05BF0540F48FE159
:1009300091E0FF90EF90DF90CF900C949003FF90A8
:10094000EF90DF90CF900895EFEEF3E081818F7804
:1009500081831092E6031092E5038FE191E00C94FD
:1009600090030F931F93CF93DF93082FEB01809198
:10097000E20388831B8112FD05C016951695169516
:10098000195F01C010E220E030E0232B21F080E06D
:1009900090E00E940000412F113208F040E2BE01B9
:1009A000802F0E94620291E00F3F09F090E0892BB6
:1009B000DF91CF911F910F910895CF93BC01FC015E
:1009C00082819091EF0390FF03C08F3F49F505C0EE
:1009D0008F3F19F0C091E30301C0CFEF8C2F0E942D
:1009E000B1049091E303C9131CC0811112C080E0CF
:1009F00090E0892B21F085E690E00E940000809134
:100A0000F00391E0980F9F70807F892B8093F00313
:100A100007C08091F003807F8093F00381E001C0E4
:100A200080E0CF9108952091EF0322FD0C94DD0426
:100A300080E008958F3F51F08093050163E082E2EA
:100A40000E94FF0161E081E20E94FF010C943602E6
:100A5000CF93DF931F92CDB7DEB7682F8FEF860F4E
:100A60008E3F68F46093E203862F69830E941A0523
:100A7000698180E090E00E94822181E00CC080E0EA
:100A800090E0892B21F08EE690E00E9400008FEF2D
:100A90008093E20380E00F90DF91CF9108950E9450
:100AA000D30281110BC080E090E0892B21F087E612
:100AB00090E00E9400008BE091E017C08091EF036E
:100AC00080618093EF036091F2036093E20380E022
:100AD00090E00E9482218091E2038F3F21F00E94EA
:100AE0002805882341F38BE191E00C949003CF9388
:100AF000DF93FC011082118212821382148215820C
:100B00001682DC0117968AE1ED0119928A95E9F7C0
:100B100083818C7F82608383DF91CF910895FC0174
:100B20002481229526952770213011F4878108951C
:100B3000211104C007960E94E920089580E00895DD
:100B40000E948F0591E0811101C090E0892F0895E6
:100B5000FC012481229526952770253029F4678190
:100B60007085818592850895211103C007960C94A4
:100B7000072160E070E0CB0108950F931F93CF939E
:100B8000DF93EC016115710561F0FB01019000201C
:100B9000E9F73197E61BF70BE931F10518F0E9E1C8
:100BA00001C0E0E00E2F10E0C801A3E0880F991FFC
:100BB000AA95E1F79B819770982B9B838C818F710D
:100BC0008C83EE2329F0A801CE0107960E942E21E6
:100BD000FE01E00FF11F1782CE01DF91CF911F912F
:100BE0000F910895EF920F9380E090E0892B21F010
:100BF00084E090E00E9400008091EF03897F816093
:100C00008093EF038FEF8093E4038093E303E12C61
:100C100007E023E04FEF6FEF8EE993E00E940D01B4
:100C200062E772E00E94BD050F91EF900C94DD0425
:100C3000EF920F938091E2038F3FC9F480E090E040
:100C4000892B21F086E090E00E940000E12C03E077
:100C500023E04FEF60E08EE993E00E940D0162E730
:100C600072E00E94BD050F91EF900C94DD040F918E
:100C7000EF900895FC01838187708860838384816D
:100C80008F71806284836783CF010895EF920F9301
:100C900080E090E0892B21F088E090E00E94000045
:100CA0008FEF8093F1038091EF0388608093EF03CF
:100CB000E12C08E123E04FEF60E08EE993E00E9431
:100CC0000D0161E00E943A060F91EF900C94DD0453
:100CD000FC0183818770886283838481806E848332
:100CE00047835087618772872387CF010895FC016E
:100CF00084818F71806A848383818770806283831B
:100D00004783508761877287CF0108950C9413053C
:100D10002091E203FC0121832481207F2160F8E0FF
:100D20006F9FB0011124262BFC01248320919D0389
:100D300020FD0C94130580E008958F929F92AF924E
:100D4000BF92EF920F93E82E0E94C5034B015C0106
:100D500006E123E04FEF60E08EE993E00E940D0191
:100D6000B501A4010E9477060F91EF90BF90AF905C
:100D70009F908F900C941305EF920F93CF93DF9376
:100D80008F3F19F4CBE2D1E001C0EA01E22E062F39
:100D900020E0482F60E08EE993E00E940D01BE0143
:100DA0000E94BD05DF91CF910F91EF900C94130538
:100DB000CF92DF92EF92FF920F931F93CF93DF9327
:100DC0006C01EB01F42E009781F0E42E0BE023E0A0
:100DD0004FEF60E08EE993E00E940D01B6010E94A2
:100DE000BD050E941305182F01C011E0209779F06E
:100DF000EF2C0CE023E04FEF60E08EE993E00E94DF
:100E00000D01BE010E94BD050E9413051823812F0C
:100E1000DF91CF911F910F91FF90EF90DF90CF90D6
:100E2000089540E061E371E08AE391E00E94D80612
:100E300020E042E752E067E080E00E94BC0620E04C
:100E400042E752E066E081E00E94BC0620E042E713
:100E500052E060E182E00E94BC0620E042E752E0FE
:100E60006DE083E00E94BC0681E090919C039111AB
:100E700001C080E0809300010895A8950C947F182C
:100E80000E943D070C94E5098F929F92AF92BF920A
:100E9000CF92DF92EF92FF926B017C010E94CA1801
:100EA0004B015C010E94CA18681979098A099B09DB
:100EB0006C157D058E059F0518F40E944007F2CF42
:100EC000FF90EF90DF90CF90BF90AF909F908F906A
:100ED00008956F927F928F929F92AF92BF92CF921E
:100EE000DF92EF92FF92CF93DF934B015C01C42F0F
:100EF000622E0E94CA186B017C0181E0611080E0C3
:100F00008093C403712CD0E00E94CA186C197D092B
:100F10008E099F09681579058A059B0590F4711063
:100F200010C00E9440074091C303477050E04C1727
:100F30005D0751F78091C4038611E6CF772473943F
:100F4000E3CF872DDF91CF91FF90EF90DF90CF908F
:100F5000BF90AF909F908F907F906F900895EF9289
:100F60000F931F93CF93DF93EC01162FE12C0FE02B
:100F700023E04FEF0E940D0162E772E00E94BD0581
:100F80008B81877080618B838C818F71806C8C8367
:100F900081E08F831886CE010E94130511110DC0C8
:100FA0002FE043E060ED77E080E090E0DF91CF91CB
:100FB0001F910F91EF900C946907DF91CF911F91D2
:100FC0000F91EF900895EF920F93CF9380E090E010
:100FD000892B21F089E090E00E94000080919D0320
:100FE000816080939D03C4E0E12C0AE123E04FEF90
:100FF00060E08EE993E00E940D0162E00E943A06F3
:101000000E9486062BE143E060ED77E080E090E00F
:101010000E946907811102C0C15031F7CF910F9131
:10102000EF900895EF920F93CF9380E090E0892B9B
:1010300021F08CE090E00E94000060E08EE993E0F7
:101040000E94AF0720E042E752E061E18FEF0E948B
:10105000BC06C091E303E12C06E023E04FEF60E023
:101060008EE993E00E940D016C2F0E943A060E94C7
:10107000860626E043E060ED77E080E090E00E94A5
:10108000690781E197E0892B29F0CF910F91EF90CB
:101090000C941107CF910F91EF90089580919D03CB
:1010A00081FD09C00E9412080E94E30780919D0300
:1010B000826080939D0308959091C4038091C00342
:1010C00081115FC09D30A1F480E090E0892B21F078
:1010D0008BE090E00E94000028E088E190E00FB6ED
:1010E000F894A895809360000FBE20936000FFCF16
:1010F0009B3199F48FEB93E00E94A00590919D03A2
:1011000080FB90F990939D0380E090E0892B89F11A
:101110008AE090E00E9400002CC0963099F49091F3
:10112000C60381E0992319F09D3409F080E0809393
:101130009C0341E050E063E071E08CE993E00E94A1
:10114000722117C0933119F40E94120812C0923113
:1011500021F480E00E949D060CC0913061F480E093
:1011600090E0892B31F08FEB93E00E94A8050E945C
:10117000000081E008959A30E1F381E09C3121F490
:1011800004C081E09A3109F080E00895EF920F9356
:101190001F93CF93DF9380E090E0892B21F081E0D3
:1011A00090E00E9400008FEB93E00E94B202409119
:1011B000C203942F9695969596959A3108F099E1E9
:1011C00042FD03C037E0390F01C030E26091C30334
:1011D000C091C403D091C0032091BF035091C103BB
:1011E000831741F080E090E0892B09F4D6C08CE6AB
:1011F00090E00BC0842F8370823071F080E090E02B
:10120000892B09F4CAC08DE690E0DF91CF911F9140
:101210000F91EF900C940000162F17708091F0033F
:1012200080688093F0038091E203581384C0892F73
:1012300090E09C01B3E0220F331FBA95E1F74770AD
:10124000422B4093C203FC01E154FC4F178263FF21
:1012500017C081E2EFEBF3E0AEE9B3E001900D924D
:101260008A95E1F78091A203877F80618093A20332
:1012700050939F03D093A0038EE993E00E9413053F
:101280008091C30384FD4AC0133009F047C08FEB3F
:1012900093E00E948703811180C0C43009F47DC0AF
:1012A000C830D9F4C091EF03C0FF77C08FEB93E053
:1012B0000E948F058F3F09F470C08F5F8F3F09F444
:1012C0006CC09091E403891708F067C0C1FD65C048
:1012D0008093E403D093E30360C0C83159F4E12C58
:1012E00009E123E04FEF6D2F8EE993E00E940D019D
:1012F00061E046C0C93171F48091EF0383FF4DC0B6
:10130000877F8093EF038FEB93E00E948F0580939C
:10131000F10343C00E945C0881113FC080E090E06F
:10132000892BD9F18FEB93E0DF91CF911F910F9132
:10133000EF900C9400005F3F81F5133051F58091E0
:10134000EF0382FF02C0C73041F1C83031F1C43130
:1013500021F58091E303281320C00E94CA187370FE
:10136000882799270E94F918C091E303E12C05E131
:1013700023E04FEF6D2F8EE993E00E940D016C2F5B
:101380000E943A06DF91CF911F910F91EF900C943C
:10139000DD048091E303281709F2DF91CF911F91BB
:1013A0000F91EF900895CF938091EF0384FF0BC0CE
:1013B000C6E087E10E94430280FD05C0C15019F0DC
:1013C0000E94C608F6CFCF9108950E946A040C943B
:1013D000D3098F929F92AF92BF92CF92DF92EF92FA
:1013E000FF92CF93DF931F92CDB7DEB76B017C01E5
:1013F0000E94CA184B015C010E94CA186819790939
:101400008A099B096C157D058E059F0538F0C1146E
:10141000D104E104F10411F080E00DC00E94E5095F
:101420008091EF0382FB882780F989830E943D0722
:101430008981882309F30F90DF91CF91FF90EF907E
:10144000DF90CF90BF90AF909F908F90089561E014
:1014500087E00E94BF1961E086E00E94BF1960E04A
:1014600085E00E94BF1960E086E00E94F81960E004
:1014700087E00C94F819FF920F931F93CF93DF939B
:10148000F82E062FC0E0D0E010E08F2D0E942E1A1B
:101490000C2E01C0880F0A94EAF7182B61E0802F08
:1014A0000E94F81960E0802F0E94F8192196C83038
:1014B000D10559F7812FDF91CF911F910F91FF90A7
:1014C0000895CF9361E087E00E94F81966E085E017
:1014D0000E943B0AC82F60E087E00E94F8198091C3
:1014E0009303C81709F477C0C0939303809127032F
:1014F000882371F062E471E080E094E00E947F1C38
:101500004AE050E06091930380E094E00E94641D03
:1015100080919303803791F1D0F48033B9F160F476
:10152000803109F443C0803209F450C0811153C0A6
:101530008091F203815F4DC0803581F18036F1F1F9
:10154000803409F048C08091F203835F42C0803B41
:10155000C9F050F4803931F1803AA1F18038D9F5E1
:101560008091F203825F35C0803DA1F0803E11F191
:10157000803C89F58091F203845F2BC08091F20357
:101580008F5F27C08091F2038E5F23C08091F203AA
:101590008D5F1FC08091F2038C5F1BC08091F203AE
:1015A0008B5F17C08091F2038A5F13C08091F203B2
:1015B000895F0FC08091F203885F0BC08091F203B6
:1015C000875F07C08091F203865F03C08091F203BA
:1015D000855F8093F203CF9108950E94270A8DE2E0
:1015E0008093F2030C94610ACF92DF92EF92FF9204
:1015F0008EE00E9479199C019093900380938F0351
:101600006AE070E00E94992070938E0360938D03CE
:10161000B901882777FD8095982F0E947E1F29E0C9
:1016200037E64CE55BE30E9432206B017C0160935E
:1016300085037093860380938703909388039B01AF
:10164000AC016091890370918A0380918B03909122
:101650008C030E94DF1E882309F440C0C0928903D6
:10166000D0928A03E0928B03F0928C0321E0B701C1
:10167000A60183EA92E00E94680660E00E94880664
:1016800080912703882351F162E571E080E094E0C6
:101690000E947F1C60918F03709190034AE050E09C
:1016A00080E094E00E943F1D62E671E080E094E0FB
:1016B0000E947F1C409185035091860360918703AF
:1016C0007091880322E030E080E094E00E94661E82
:1016D00065E771E080E094E00E948C1C80918D03AE
:1016E00090918E032091910330919203281739072E
:1016F00011F19093920380939103809127038823A3
:10170000D1F068E771E080E094E00E947F1C609176
:101710008D0370918E034AE050E080E094E00E94D7
:10172000371D6BE871E080E094E0FF90EF90DF9070
:10173000CF900C948C1CFF90EF90DF90CF90089589
:1017400061E084E00E94F81964EF71E080E090E0CD
:101750000C94F91860E084E00E94F81964EF71E0DD
:1017600080E090E00C94F918CF92DF92EF92FF9214
:101770000E94A00B60ED77E080E090E00E94F918F5
:1017800080917D0390917E03019719F468EE73E0D8
:1017900002C060ED77E0882777FD8095982F0E9442
:1017A000F91884E793E00E94F8126B017C019B0119
:1017B000AC010E949520882341F080912703882363
:1017C00009F44FC069EA71E048C020919803309154
:1017D000990340919A0350919B03C701B6010E945F
:1017E000DF1E8823F1F1C0929803D0929903E09212
:1017F0009A03F0929B0380910001811110C026E6AC
:1018000036E646EE5FE3C701B6010E94322020E0D3
:1018100030E040E052E40E947B1E6B017C0121E03D
:10182000B701A60185EE92E00E94680660E00E9482
:101830008806809127038823A1F06DEC71E080E099
:1018400094E00E947F1C22E030E0B701A60180E016
:1018500094E00E94661E65ED71E080E094E00E94D5
:101860008C1C84E793E00E94EC126B017C019B01CD
:10187000AC010E949520882319F068ED71E034C016
:1018800020919403309195034091960350919703D2
:10189000C701B6010E94DF1E882351F1C092940354
:1018A000D0929503E0929603F092970321E0B7015E
:1018B000A60186E093E00E94680660E00E94880628
:1018C000809127038823A1F069EF71E080E094E024
:1018D0000E947F1C22E030E0B701A60180E094E086
:1018E0000E94661E6BE871E080E094E00E948C1C10
:1018F000FF90EF90DF90CF900C94AA0B6DE280E008
:1019000090E00E9471016AE070E080E090E00E9447
:10191000F91860E081E090E00E9471016AE070E0F7
:1019200080E090E00E94F91860E083E090E00E947F
:1019300071016AE070E080E090E00E94F91860E0D8
:1019400084E090E00E9471016AE070E080E090E045
:101950000E94F91860E085E090E00E9471016AE061
:1019600070E080E090E00E94F91860E086E090E08E
:101970000E9471016AE070E080E090E00E94F91836
:1019800060E087E090E00E9471016AE070E080E032
:1019900090E00E94F91860E088E090E00E947101F8
:1019A0006AE070E080E090E00E94F91860E089E071
:1019B00090E00E9471016AE070E080E090E00C9499
:1019C000F91861E080E10E94F81962E370E080E0BC
:1019D00090E00C94F91860E080E10E94F81962E34D
:1019E00070E080E090E00C94F918CF930E94E10C35
:1019F00062E370E080E090E00E94F91883E593E0F4
:101A00000E948B1460E083E593E00E94EA1483E572
:101A100093E00E94141390E090933103809330037D
:101A2000C0E06C2F70E08091300390913103681713
:101A300079076CF483E0660F771F8A95E1F76D5C98
:101A40007C4F86E693E00E945C17811138C080913C
:101A500030039091310320912703892B59F42223DD
:101A600031F060E072E080E094E00E948C1C109203
:101A7000320322C081E0809332032223E9F064E143
:101A800072E080E094E00E947F1C609130037091CE
:101A900031034AE050E080E094E00E94371D6EE19F
:101AA00072E080E094E00E948C1C20E042E752E06B
:101AB00066E084E00E94BC06CF910C94EB0CCF5FF3
:101AC000B0CFCF92DF92EF92FF92CF93DF930E943D
:101AD000E10C80913203882309F478C062E370E05E
:101AE00080E090E00E94F918C3E3D3E0E12CF12CF0
:101AF0008091300390913103E816F9065CF44BE0D5
:101B0000BE0183E593E00E9415148FEFE81AF80AEE
:101B10002896EECF83E593E00E946B1567E771E0AE
:101B200080E090E00E94F91863E373E083E593E0BE
:101B30000E94FC156B017C0120E030E04AEF52E48A
:101B40000E94DF1E87FF42C020E030E040E252ECFE
:101B5000C701B6010E942E201816C4F5A7019601F0
:101B600060912C0370912D0380912E0390912F038F
:101B70000E94DF1E882351F121E0B701A60182E80F
:101B800092E00E94680660E00E948806C0922C03E2
:101B9000D0922D03E0922E03F0922F038091270321
:101BA0008823A1F067E272E080E094E00E947F1C4D
:101BB00022E030E0B701A60180E094E00E94661EBA
:101BC00065ED71E080E094E00E948C1CDF91CF9184
:101BD000FF90EF90DF90CF900C94EB0CCF92DF92C0
:101BE000EF92FF9282E10E947919BC01882777FD6C
:101BF0008095982F0E947E1F6B017C012091280305
:101C00003091290340912A0350912B030E94DF1E3B
:101C1000882341F1C0922803D0922903E0922A033D
:101C2000F0922B0321E0B701A60184EC92E00E9420
:101C3000680660E00E94880680912703882391F05F
:101C400062E372E080E094E00E947F1C22E030E0DA
:101C5000B701A60180E094E0FF90EF90DF90CF9075
:101C60000C94681EFF90EF90DF90CF90089560E095
:101C700082E10E94BF1961E080E10E94BF1961E02A
:101C800084E00E94BF1961E084E00E94F81960E0DE
:101C90008EE00E94BF196091F20380E090E00C9406
:101CA0007101CF93DF93CDB7DEB7A1970FB6F8944C
:101CB000DEBF0FBECDBF0E947E0C81E08093270364
:101CC0000E94370E0E94E10C0E94A00B64EF71E0AD
:101CD00080E090E00E94F91840E050E063E184E782
:101CE00093E00E94CC1261E1CE0144960E94391724
:101CF000BE016C5E7F4FCE0101960E94051380915C
:101D00002703882349F16AE371E080E094E00E94B0
:101D10007F1C6BE372E080E094E00E947F1C61E333
:101D200071E080E094E00E948C1C6FE372E080E040
:101D300094E00E948C1C6FE472E080E094E00E94CA
:101D40007F1C6091F203772767FD70954AE050E0B1
:101D500080E094E00E943F1D0E94F50CA1960FB612
:101D6000F894DEBF0FBECDBFDF91CF910895A89547
:101D700080E090E0892B11F00E94000026E040E016
:101D800052EC61E070E080E094E00E943A1B8091A8
:101D90009D038D7F80939D038DEE9AE0892B11F03A
:101DA0000E94ED0A41E050E063E071E08CE993E0CD
:101DB0000E945A216FEF81E090E00E9482210E94F0
:101DC000A4048EE498E09093E1038093E00360E044
:101DD00070E0CB010E94E90981E59EE0892B11F0BA
:101DE0000E94510EA8950895CF938FEB93E00E9427
:101DF00077058EE993E00E94770561E186E693E03E
:101E00000E94391766E673E083E593E00E940513AC
:101E100086E093E00E94770510920C03C1E0C09326
:101E20000B0385EE92E00E947705C093EB021092BF
:101E3000EA0284EC92E00E94770582E08093CA0275
:101E400087E18093C90283EA92E00E94770583E0EC
:101E50008093A90286E28093A80282E892E00E9421
:101E6000770584E08093880210928702CF910895CD
:101E7000CF92DF92EF92FF926B017C0180E094E0C1
:101E80000E94B31A809125018F3F41F480E4C81667
:101E90008FE1D806E104F10408F070C080912501BB
:101EA0008F3F41F480EAC8168FE0D806E104F104C0
:101EB00008F06FC0809125018F3F41F480EDC81676
:101EC00087E0D806E104F10408F06EC08091250196
:101ED0008F3F41F488EEC81683E0D806E104F10490
:101EE00008F06DC0809125018F3F41F484EFC81642
:101EF00081E0D806E104F10408F06CC0809125016E
:101F00008F3F39F48AEFC816D104E104F10408F0D8
:101F10006CC0809125018F3F39F48DE7C816D1043C
:101F2000E104F10408F06BC0809125018F3F39F482
:101F300080E4C816D104E104F10408F06AC080917D
:101F400025018F3F39F480E2C816D104E104F10481
:101F500008F069C0809125018F3F09F06EC080E1D3
:101F6000C816D104E104F10408F467C080E090E0F1
:101F7000FF90EF90DF90CF900C943C0389E090E0CD
:101F80000E943C0380E4C81A8FE1D80AE108F108F6
:101F900079CF88E090E00E943C0380EAC81A8FE085
:101FA000D80AE108F10886CF87E090E00E943C0360
:101FB00080EDC81A87E0D80AE108F10887CF86E0EB
:101FC00090E00E943C0388EEC81A83E0D80AE1083A
:101FD000F10888CF85E090E00E943C0384EFC81AA6
:101FE00081E0D80AE108F10889CF84E090E00E94FE
:101FF0003C038AEFC81AD108E108F1088ACF83E0D0
:1020000090E00E943C0388E7C81AD108E108F10873
:102010008BCF82E090E00E943C038CE3C81AD10889
:10202000E108F1088CCF81E090E00E943C038EE152
:10203000C81AD108E108F1088DCFFF90EF90DF902A
:10204000CF900895AF92BF92CF92DF92EF92FF921E
:102050000F931F93CF93DF931F92CDB7DEB7A82EB8
:10206000B42E67017801F8948093240140932301F2
:102070008FEFA81649F0462F50E069E371E08A2DF2
:1020800029830E94FF172981EFEFBE1639F0422FF6
:1020900050E06AE471E08B2D0E94FF17C114D10457
:1020A000E104F10429F0C701B6010E94380F04C011
:1020B0008AE090E00E943C03FFEFAF1619F08A2DF2
:1020C0000E941F188FEFB81619F08B2D0E941F1851
:1020D000809125018F3F19F08091250101C08FEF7C
:1020E0009FEF909325010F90DF91CF911F910F915A
:1020F000FF90EF90DF90CF90BF90AF900895EF9258
:10210000FF920F931F9379018A0120E04FEF0E9405
:1021100022101F910F91FF90EF9008952F923F9200
:102120004F925F926F927F928F929F92AF92BF92E7
:10213000CF92DF92EF92FF920F931F93CF93DF9393
:1021400000D000D0CDB7DEB74B015C01142F322E8A
:10215000D02E2E2C8091EF0382FD1FC00E94CA1842
:102160002B013C0160E070E0CB012091EF0322FDE8
:1021700067C0681579058A059B0508F067C060315E
:1021800027E272078105910508F462C0A501940158
:10219000261B370B480B590B02C0A50194011123D4
:1021A00089F080E029833A834B835C830E949D06FB
:1021B00064EF71E080E090E00E9444075C814B8115
:1021C0003A81298129833A834B835C830E941002E0
:1021D00080E090E029813A814B815C81892B41F03C
:1021E0008EE090E00E9400005C814B813A81298161
:1021F0008FEF381689F0281649F079018A012C2DC5
:10220000422D6D2D832D0E94221004C06D2D832D33
:102210000E947F10182F0AC0EFEF2E1206C0CA01CD
:10222000B9010E94380F1FEF01C01EEF20E030E01F
:10223000232B21F08FE090E00E940000812F11C03D
:10224000681579058A059B0508F4A0CF8EEF09C0B3
:102250000E9440070E94CA186419750986099709E7
:1022600084CF0F900F900F900F90DF91CF911F911F
:102270000F91FF90EF90DF90CF90BF90AF909F9025
:102280008F907F906F905F904F903F902F90089528
:10229000CF92EF920F93CC24CA94EE24EA940FEFDE
:1022A0002FEF0E948E100F91EF90CF9008950E9413
:1022B000B40B0E94EE0D0E94F40A0E94610D609121
:1022C000010170910201809103019091040140E0AD
:1022D0000C9448110E943E190E94B70EC7E5D1E147
:1022E00004E81AE10E944007209711F00E9457115C
:1022F00001151105B9F30E94841AF4CFCF93CFB71B
:10230000F8948091F603811127C0EAE9F1E0849105
:10231000E6E8F1E09491E82FF0E0EE0FFF1FE854BB
:10232000FE4FA591B4918C91892321F461E08AE05C
:102330000E94F81961E08AE00E94BF198CB58061A3
:102340008CBD8CB580648CBD61E08DE00E94BF19AE
:1023500061E08BE00E94BF198091F6038F5F80934C
:10236000F603CFBFCF910895CF93DF93EC010E9486
:10237000CA18685B7B40810991096D877E878F87CA
:10238000988BDF91CF9108954F925F927F928F92B9
:102390009F92AF92BF92CF92DF92EF92FF920F93F4
:1023A0001F93CF93DF931F92CDB7DEB72C010E940E
:1023B000CA18F20105851685278530896B017C01D5
:1023C000C01AD10AE20AF30A21853285213031058B
:1023D00029F407EE13E020E030E004C00FEC17E032
:1023E00020E030E0C016D106E206F30608F4C3C0D0
:1023F000F201658776878787908B40E050E060EC3C
:102400007FE740835183628373834483558366836C
:10241000778360E080850E94F81961E0F201808591
:102420000E94BF19F20181859285019739F462E11A
:1024300070E080E090E00E94F91804C080E293E030
:102440000E94331960E0F20180850E94BF1961E0AB
:10245000F20180850E94F81900E010E0A12CB12C57
:10246000C12CD12C2DEF922E0E94D618762EF92D4C
:10247000F1708F2EEF2EFF24E7FCF0940E94D61807
:1024800067196B3518F081E090E030C0F20180856B
:1024900069830E942E1A69818E159F0579F397FC36
:1024A00008C0882031F0CC0CDD1C6F3110F068942E
:1024B000C0F8FFE19F1639F08FE3981205C086013E
:1024C000C12CD12C01C056019394E0E59E12CCCFD3
:1024D0006B2D7727E12EF12C802F8A0D860F810F2F
:1024E00090E08C159D0531F082E090E0F201948738
:1024F000838741C0F20181859285019779F480E05C
:1025000090E00E947C1FF201648375838683978329
:10251000B70180E090E00E947C1F25C0B50180E0FB
:1025200090E00E947C1F2DEC3CEC4CEC5DE30E94A3
:102530003220F2016483758386839783B80177FF25
:1025400005C07F7700271127061B170BB8018827C6
:1025500077FD8095982F0E947E1F2DEC3CEC4CEC73
:102560005DE30E943220F201608371838283938352
:10257000F201148613860F90DF91CF911F910F9176
:10258000FF90EF90DF90CF90BF90AF909F908F9093
:102590007F905F904F9008950F931F93CF93DF9399
:1025A000EC018A0168875A8749870E94B411012B80
:1025B00071F482E090E09A878987CE010E94C4116D
:1025C0008B859C858130910511F49A878987DF91ED
:1025D000CF911F910F910895CF93DF93EC010E944B
:1025E000C4116C817D818E819F81DF91CF9108958F
:1025F000CF93DF93EC010E94C411688179818A81B5
:102600009B81DF91CF9108950895FC0184E093E1CF
:10261000928B818B768365831482108289E081831B
:1026200081E0828383830895FC0184810895CF93A0
:10263000DF93EB0167E0CE010E94F21791E02F815A
:10264000821390E0892FDF91CF910895CF92DF928E
:10265000EF92FF920F931F93CF93DF9300D0CDB7EC
:10266000DEB76C01F42EE52EFC018581968169832D
:102670007A830E94001669817A81882311F1F6011C
:10268000858196810E94FB1640E06EEBF601858104
:1026900096810E949D160F2D1E2D89E0F82EF601C1
:1026A000858196810E94DF16F80181938F01FA944B
:1026B000B1F7F601858196810E94001691E0813084
:1026C00009F090E0892F0F900F90DF91CF911F912B
:1026D0000F91FF90EF90DF90CF900895CF93DF930D
:1026E000EA010E942613882351F068E0CE010E947F
:1026F000F21791E02885821390E0892F01C080E0D5
:10270000DF91CF910895EF92FF920F931F93CF9394
:10271000DF93EC018B017A018D819E810E9400166E
:10272000B8018D819E810E94FB1640E06EE48D8190
:102730009E810E949D1640E0F70162818D819E81FD
:102740000E949D1640E0F70163818D819E810E9469
:102750009D16F8018081803139F040E0F7016481F5
:102760008D819E810E949D168D819E810E94001602
:10277000B8018D819E810E94FB16B8018D819E81DA
:102780000E94FB16488168E48D819E810E949D16FF
:1027900064E170E080E090E00E94F918888188236D
:1027A00031F06AE070E080E090E00E94F9188D81DD
:1027B0009E81DF91CF911F910F91FF90EF900C942C
:1027C0000016EF92FF921F93CF93DF9300D0CDB707
:1027D000DEB77C01FC018581968169837A830E9442
:1027E000001669817A81F701858196810E94FB1626
:1027F00040E064EBF701858196810E949D16F70108
:10280000858196810E947216182FF7018581968125
:102810000E94001681E0111180E00F900F90DF916F
:10282000CF911F91FF90EF900895EF92FF920F9339
:102830001F93CF93DF93CDB7DEB72A970FB6F894E7
:10284000DEBF0FBECDBF7C018B01242FAE014F5FD9
:102850005F4F2A870E946E132A858823D1F0F801E2
:1028600080818031C1F02B3041F02C3021F02A30B2
:1028700031F48FE305C08FE703C08FE501C08FE11E
:102880008D83AE014F5F5F4FB801C7010E94831374
:1028900002C080E001C081E02A960FB6F894DEBF46
:1028A0000FBECDBFDF91CF911F910F91FF90EF90A1
:1028B0000895CF93DF93CDB7DEB729970FB6F8947D
:1028C000DEBF0FBECDBFFB0120812031D1F0AE01B4
:1028D0004F5F5F4F0E946E13882379F08D818F3395
:1028E00051F020F48F3149F489E00CC08F3539F074
:1028F0008F3739F002C08AE005C080E003C08BE06A
:1029000001C08CE029960FB6F894DEBF0FBECDBF94
:10291000DF91CF910895EF92FF920F931F93CF9382
:10292000DF93CDB7DEB728970FB6F894DEBF0FBEA2
:10293000CDBF8C01FC01858196810E942717F8018B
:102940001482FF24F394BE016F5F7F4FF8018581ED
:1029500096810E945C17882381F1BE016F5F7F4FD3
:10296000C8010E941713882371F3F8018081811137
:1029700008C0BE016F5F7F4FC8010E94E113811143
:1029800019C0F801E180BE016F5F7F4FC8010E944E
:1029900059148E1518F4F801818106C0BE016F5FCD
:1029A0007F4FC8010E945914F801818384818F5F91
:1029B0008483C9CFF801F082E4CF28960FB6F8944B
:1029C000DEBF0FBECDBFDF91CF911F910F91FF9062
:1029D000EF900895FC0162830895CF93DF93CDB704
:1029E000DEB729970FB6F894DEBF0FBECDBFAE019C
:1029F0004F5F5F4F0E94261381E09981911101C0C2
:102A000080E029960FB6F894DEBF0FBECDBFDF91F0
:102A1000CF9108958F929F92AF92BF92CF92DF9203
:102A2000EF92FF920F931F93CF93DF93EC018A01F4
:102A30006950633048F4E62FF0E0EE0FFF1FE65ACE
:102A4000FD4F8080918004C09EEE892E92E0992EE9
:102A50000115110501F18B818823E9F0888181112D
:102A60001AC00E94CA186B017C01AA2497FCA0948A
:102A7000BA2CB801CE010E94ED1481111FC00E9432
:102A8000CA18681979098A099B096C157D058E0594
:102A90009F05A0F4EECFB401882777FD8095982F8D
:102AA000DF91CF911F910F91FF90EF90DF90CF902A
:102AB000BF90AF909F908F900C94F918DF91CF91B9
:102AC0001F910F91FF90EF90DF90CF90BF90AF904C
:102AD0009F908F900895CF93DF93EC018D819E811D
:102AE0000E9400168D819E810E942317488164E414
:102AF0008D819E810E949D168A81882341F040E04D
:102B000050E06981CE01DF91CF910C940A15DF91DD
:102B1000CF910895FA01208148E0249F900111246B
:102B2000818190E0982F8827990F990F990F282B72
:102B3000392BDB018C918031C1F4678170E0868193
:102B4000AB01481B5109CA019695982F8827979584
:102B500087950E94992060517109207F53E0220FD0
:102B6000331F5A95E1F7260F371FC9010895EF92D9
:102B7000FF920F931F93CF93DF93CDB7DEB72997C3
:102B80000FB6F894DEBF0FBECDBF8C017B01AE0146
:102B90004F5F5F4F0E946E13882341F0AE014F5F7D
:102BA0005F4FB701C8010E948A1502C080E894EE09
:102BB00029960FB6F894DEBF0FBECDBFDF91CF913F
:102BC0001F910F91FF90EF900895813824EE9207A6
:102BD00074F0BC01882777FD8095982F0E947E1F96
:102BE00020E030E040E05CE30E943220089560E0A5
:102BF00070E08EEF92EC08950E94B7150C94E515E5
:102C0000FF920F931F93CF93DF93FC010081C1814B
:102C1000D281F8948981F02EF0948F218983789461
:102C20001DE7115029F182E090E00E94331988815C
:102C30008023B9F3F8948A818F218A838981802B3C
:102C40008983789480EE91E00E943319F894898109
:102C50008F21898386E490E00E9433198881802344
:102C600011E009F010E078948AE991E00E943319AC
:102C7000812FDF91CF911F910F91FF9008951F93A6
:102C8000CF93DF93FC011081C181D281912F909568
:102C900060FF12C0F8948A8189238A838981812BFD
:102CA00089838AE090E00E9433198A81812B8A838C
:102CB000789487E390E011C0F8948A8189238A830D
:102CC0008981812B898381E490E00E9433198A8174
:102CD000812B8A83789485E090E0DF91CF911F91DA
:102CE0000C9433190F931F93CF93DF93FC01108142
:102CF000C181D281F8948981812B89838A81012FB6
:102D0000009580238A8383E090E00E9433198981B3
:102D1000802389838AE090E00E943319C8817894E7
:102D200085E390E00E9433191C2381E009F480E0E0
:102D3000DF91CF911F910F910895CF92DF92EF9283
:102D4000FF920F931F93CF93DF931F92CDB7DEB700
:102D50006C01E62E08E010E0FF24F39461E09F2D63
:102D60009E2109F460E0C60149830E943F16FF0CD2
:102D70000150110949810115110581F7411115C053
:102D8000F894D6011196ED91FC91129791818C9156
:102D90008095892381831196ED91FC911297928100
:102DA0008C9180958923828378940F90DF91CF91C5
:102DB0001F910F91FF90EF90DF90CF900895EF92C9
:102DC000FF920F931F93CF93DF938C01C8E0D0E065
:102DD000F12CEE24E394C8010E9472168111FE28A2
:102DE000EE0C2197C1F78F2DDF91CF911F910F919D
:102DF000FF90EF900895CF92DF92FF920F931F9371
:102E0000CF93DF931F92CDB7DEB78C01F62E40E053
:102E100065E579830E949D16CF2C7981D72E88E0B5
:102E2000F82EF60161916F0140E0C8010E949D16E5
:102E3000FA94B9F70F90DF91CF911F910F91FF9006
:102E4000DF90CF90089540E06CEC0C949D16FC014F
:102E500013861586148627E030E0DF01A20FB31F2A
:102E600013961C922115310519F021503109F5CF27
:102E700008951F93CF93DF93EC01162F60E0812F0D
:102E80000E94BF19612F70E0FB01E458FE4FE491EE
:102E9000E883FB01E057FE4FE491F0E0EE0FFF1FE7
:102EA000EC55FE4F859194919A838983CE01DF91F1
:102EB000CF911F910C942717AF92BF92CF92DF92C0
:102EC000EF92FF920F931F93CF93DF931F92CDB793
:102ED000DEB75C01D62EE72EFC01858581115DC031
:102EE000C5010E940016811105C0F50113861586E3
:102EF00014866CC040E060EFC5010E949D1601E0A1
:102F0000F12CC12C11E0C5010E947216682FC50179
:102F100069830E9472166981613019F48130B9F4B5
:102F200033C02F2D30E068131BC0F50183851817BF
:102F300030F4E20FF31F8381802349F402C0181795
:102F400031F060E0193058F4F501148708C0F5013C
:102F5000EF0DF11D8381802B838361E009C0C12EB9
:102F6000F501E20FF31F8381902F909589238383CE
:102F7000C5010E943F161F5F000F11F4F39401E09A
:102F8000F7E0FF1508F0BFCF113438F0F501C38624
:102F9000C11009C081E0858706C0F501138615863A
:102FA000148680E013C0F50183818823B1F3ED2DF1
:102FB000FE2D80E090E0D501A80FB91F13962C914B
:102FC0002193019688309105B1F781E00F90DF9150
:102FD000CF911F910F91FF90EF90DF90CF90BF9016
:102FE000AF900895DC0180E0615038F0ED91E82762
:102FF000F0E0E859FF4F8491F7CF089508958230AB
:10300000E8F4E82FF0E0EE0FFF1FEA5DFE4F71835A
:103010006083813041F0809169008C7F842B8093A4
:103020006900E89A089580916900440F551F440F84
:10303000551F837F842B80936900E99A089582301D
:1030400078F4813011F0E89801C0E998E82FF0E0B9
:10305000EE0FFF1FEA5DFE4F8EEF97E191838083B5
:1030600008951F920F920FB60F9211242F933F9342
:103070004F935F936F937F938F939F93AF93BF9380
:10308000EF93FF93E0912601F09127010995FF91BD
:10309000EF91BF91AF919F918F917F916F915F91D0
:1030A0004F913F912F910F900FBE0F901F90189549
:1030B0001F920F920FB60F9211242F933F934F93AD
:1030C0005F936F937F938F939F93AF93BF93EF9390
:1030D000FF93E0912801F09129010995FF91EF916B
:1030E000BF91AF919F918F917F916F915F914F9120
:1030F0003F912F910F900FBE0F901F90189508953C
:103100001F920F920FB60F9211242F933F938F931C
:103110009F93AF93BF938091F8039091F903A0918F
:10312000FA03B091FB033091F70323E0230F2D370F
:1031300020F40196A11DB11D05C026E8230F0296BB
:10314000A11DB11D2093F7038093F8039093F90319
:10315000A093FA03B093FB038091FC039091FD03CD
:10316000A091FE03B091FF030196A11DB11D8093B4
:10317000FC039093FD03A093FE03B093FF03BF9164
:10318000AF919F918F913F912F910F900FBE0F9014
:103190001F9018952FB7F8946091F8037091F90378
:1031A0008091FA039091FB032FBF08953FB7F894E5
:1031B0008091FC039091FD03A091FE03B091FF0369
:1031C00026B5A89B05C02F3F19F00196A11DB11D82
:1031D0003FBF6627782F892F9A2F620F711D811D9F
:1031E000911D42E0660F771F881F991F4A95D1F7FE
:1031F00008958F929F92AF92BF92CF92DF92EF92FB
:10320000FF926B017C010E94D6184B015C01C11436
:10321000D104E104F104F1F00E947F180E94D61855
:10322000681979098A099B09683E734081059105EF
:1032300070F321E0C21AD108E108F10888EE880E87
:1032400083E0981EA11CB11CC114D104E104F10457
:1032500029F7DDCFFF90EF90DF90CF90BF90AF9038
:103260009F908F9008958230910538F0880F991FB4
:10327000880F991F05970197F1F70895789484B501
:10328000826084BD84B5816084BD85B5826085BD62
:1032900085B5816085BDEEE6F0E080818160808348
:1032A000E1E8F0E01082808182608083808181602B
:1032B0008083E0E8F0E0808181608083E1EBF0E0F2
:1032C000808184608083E0EBF0E080818160808396
:1032D000EAE7F0E08081846080838081826080837F
:1032E0008081816080838081806880831092C100AA
:1032F00008958E3008F08E50877020912A0190E456
:10330000299F90011124822B80937C0080917A0068
:10331000806480937A0080917A0086FDFCCF809152
:1033200078002091790090E0922B0895833081F00D
:1033300028F4813099F08230A1F008958730A9F007
:103340008830B9F08430D1F4809180008F7D03C043
:10335000809180008F7780938000089584B58F7767
:1033600002C084B58F7D84BD08958091B0008F77B1
:1033700003C08091B0008F7D8093B0000895CF93FB
:10338000DF9390E0FC01E458FE4F2491FC01E057EC
:10339000FE4F8491882349F190E0880F991FFC012A
:1033A000E854FE4FA591B49182559E4FFC01C59102
:1033B000D4919FB7611108C0F8948C912095822315
:1033C0008C93888182230AC0623051F4F8948C91E6
:1033D000322F309583238C938881822B888304C07D
:1033E000F8948C91822B8C939FBFDF91CF9108959D
:1033F0000F931F93CF93DF931F92CDB7DEB7282F84
:1034000030E0F901E859FE4F8491F901E458FE4F8C
:103410001491F901E057FE4F04910023C9F088236D
:1034200021F069830E9496196981E02FF0E0EE0F88
:10343000FF1FE255FE4FA591B4919FB7F8948C9170
:10344000611103C01095812301C0812B8C939FBF14
:103450000F90DF91CF911F910F910895CF93DF933C
:10346000282F30E0F901E859FE4F8491F901E45822
:10347000FE4FD491F901E057FE4FC491CC2391F057
:1034800081110E949619EC2FF0E0EE0FFF1FEC5512
:10349000FE4FA591B4912C912D2381E090E021F471
:1034A00080E002C080E090E0DF91CF910895FC01C0
:1034B000818D228D90E0805C9F4F821B91098F73DC
:1034C00099270895FC01918D828D981731F0828D96
:1034D000E80FF11D858D90E008958FEF9FEF08951F
:1034E000FC01918D828D981761F0828DDF01A80F0C
:1034F000B11D5D968C91928D9F5F9F73928F90E02E
:1035000008958FEF9FEF089584EF9BE1892B49F099
:1035100080E090E0892B29F00E94F41B81110C942B
:1035200000000895FC01848DDF01A80FB11DA35A8E
:10353000BF4F2C91848D90E001968F739927848FD3
:10354000A689B7892C93A089B1898C9180648C93CA
:10355000938D848D981306C00288F389E02D8081B5
:103560008F7D80830895CF93DF93EC01888D88232E
:10357000C9F0EA89FB89808185FD05C0A889B989E0
:103580008C9186FD0FC00FB607FCF5CF808185FFBB
:10359000F2CFA889B9898C9185FFEDCFCE010E9429
:1035A000921AE7CFDF91CF910895CF92DF92FF92E9
:1035B0000F931F93CF93DF931F92CDB7DEB76C01AC
:1035C00081E0D60158968C9358975B969C915B97B7
:1035D0005C968C915C97981307C05096ED91FC9186
:1035E0005197808185FD2EC0F601038D10E00F5F9D
:1035F0001F4F0F731127F02EF601848DF81211C0A2
:103600000FB607FCF9CFD6015096ED91FC9151977A
:10361000808185FFF1CFC60169830E94921A69817A
:10362000EBCF838DE80FF11DE35AFF4F6083D60186
:103630005B960C935B975296ED91FC91539780812A
:1036400080620CC0D6015696ED91FC91579760832D
:103650005096ED91FC91519780818064808381E048
:1036600090E00F90DF91CF911F910F91FF90DF902D
:10367000CF900895BF92CF92DF92EF92FF92CF93B7
:10368000DF93EC016A017B01B22EE889F98982E0BF
:103690008083411581EE580761057105A1F060E056
:1036A00079E08DE390E0A70196010E94AD202150C2
:1036B00031094109510956954795379527952115A7
:1036C00080E1380798F0E889F989108260E874E8A9
:1036D0008EE190E0A70196010E94AD2021503109B2
:1036E000410951095695479537952795EC85FD85F4
:1036F0003083EE85FF852083188EEC89FD89B082AA
:10370000EA89FB89808180618083EA89FB898081E5
:1037100088608083EA89FB89808180688083EA8968
:10372000FB8980818F7D8083DF91CF91FF90EF9027
:10373000DF90CF90BF9008951F920F920FB60F9217
:1037400011242F938F939F93EF93FF93E091100495
:10375000F09111048081E0911604F091170482FD2C
:1037600012C09081809119048F5F8F7320911A0489
:10377000821751F0E0911904F0E0E050FC4F958F72
:103780008093190401C08081FF91EF919F918F91E7
:103790002F910F900FBE0F901F9018951F920F92B0
:1037A0000FB60F9211242F933F934F935F936F9314
:1037B0007F938F939F93AF93BF93EF93FF9380E09B
:1037C00094E00E94921AFF91EF91BF91AF919F9167
:1037D0008F917F916F915F914F913F912F910F90BA
:1037E0000FBE0F901F90189580E094E00E94571A2A
:1037F00021E0892B09F420E0822F08951092030420
:103800001092020488EE93E0A0E0B0E080930404FC
:1038100090930504A0930604B093070484E692E015
:10382000909301048093000485EC90E090930D0444
:1038300080930C0484EC90E090930F0480930E042A
:1038400080EC90E0909311048093100481EC90E060
:10385000909313048093120482EC90E090931504EB
:103860008093140486EC90E09093170480931604E0
:103870001092190410921A0410921B0410921C0446
:103880000895CF92DF92EF92FF920F931F93CF9301
:10389000DF937C016A01EB0100E010E00C151D05CF
:1038A00071F06991D701ED91FC910190F081E02DCB
:1038B000C7010995892B19F00F5F1F4FEFCFC80182
:1038C000DF91CF911F910F91FF90EF90DF90CF90FC
:1038D00008956115710581F0DB010D900020E9F775
:1038E000AD0141505109461B570BDC01ED91FC9194
:1038F0000280F381E02D099480E090E008950C941B
:10390000691CDC01ED91FC910190F081E02D09949E
:1039100060E772E00C94691C0F931F93CF93DF93C1
:10392000EC010E94691C8C01CE010E94881C800F52
:10393000911FDF91CF911F910F9108958F929F92C8
:10394000AF92BF92DF92EF92FF920F931F93CF93AC
:10395000DF93CDB7DEB7A1970FB6F894DEBF0FBEE9
:10396000CDBF7C01F42FD52ECB0119A2223008F453
:103970002AE08E010F5D1F4F822E912CA12CB12CBD
:103980006F2F7D2DA50194010E94AD20F22FD32E23
:10399000CA01015011096A3014F4E0E301C0E7E301
:1039A000E60FD801EC93232B242B252B49F7B801E4
:1039B000C7010E94691CA1960FB6F894DEBF0FBE26
:1039C000CDBFDF91CF911F910F91FF90EF90DF90CE
:1039D000BF90AF909F908F900895CF92DF92EF921B
:1039E000FF920F931F93CF93DF93EC016A017B014A
:1039F0002115310579F4E881F9810190F081E02DFC
:103A0000642FDF91CF911F910F91FF90EF90DF9086
:103A1000CF9009942A303105E9F477FF1AC06DE29E
:103A20000E94811C8C0144275527BA014C195D095D
:103A30006E097F092AE0CE010E949E1C800F911F13
:103A4000DF91CF911F910F91FF90EF90DF90CF907A
:103A500008952AE0B701A601CE01DF91CF911F9111
:103A60000F91FF90EF90DF90CF900C949E1C9A01E5
:103A7000AB01662757FD6095762F0C94ED1C0F93D4
:103A80001F93CF93DF93EC019A01AB01662757FD9B
:103A90006095762F0E94ED1C8C01CE010E94881C3F
:103AA000800F911FDF91CF911F910F9108952115E4
:103AB000310541F4DC01ED91FC910190F081E02DA4
:103AC000642F09940C949E1C0F931F93CF93DF9344
:103AD000EC019A01462F50E060E070E00E94571D13
:103AE0008C01CE010E94881C800F911FDF91CF9125
:103AF0001F910F9108954F925F926F927F928F92D4
:103B00009F92AF92BF92CF92DF92EF92FF920F936C
:103B10001F93CF93DF93EC016A017B01B22E9A01D0
:103B2000AB01C701B6010E949520882319F063E715
:103B300072E027C026013701E89477F82FEF3FEFB6
:103B40004FE75FE7C301B2010E94952081110DC0CC
:103B50002FEF3FEF4FE75FE7C301B2010E94DF1E87
:103B600018161CF467E772E00CC02FEF3FEF4FE729
:103B70005FE4C701B6010E942E201816ACF46BE773
:103B800072E0CE01DF91CF911F910F91FF90EF90E6
:103B9000DF90CF90BF90AF909F908F907F906F906D
:103BA0005F904F900C94691C2FEF3FEF4FE75FEC55
:103BB000C701B6010E94DF1E87FDE1CF20E030E0A3
:103BC000A901C701B6010E94DF1E87FF0AC06DE28E
:103BD000CE010E94811C8C01F7FAF094F7F8F09462
:103BE00002C000E010E0A12C60E070E080E09FE304
:103BF000AB1441F020E030E040E251E40E94E31ECB
:103C0000A394F6CF9B01AC01C701B6010E947B1EB5
:103C10006B017C010E94501F2B013C010E947C1F04
:103C20009B01AC01C701B6010E947A1E6B017C01A9
:103C30002AE0B301A201CE010E949E1C080F191FA9
:103C4000BB2039F06FE772E0CE010E94691C080FBB
:103C5000191F7B2C772041F120E030E040E251E455
:103C6000C701B6010E9432206B017C010E944B1FEC
:103C70004B01AA2497FCA094BA2C2AE030E0B501AD
:103C8000A401CE010E94ED1C080F191FC501B4014B
:103C90000E947E1F9B01AC01C701B6010E947A1EE3
:103CA0006B017C017A94D6CFC801DF91CF911F912F
:103CB0000F91FF90EF90DF90CF90BF90AF909F90CB
:103CC0008F907F906F905F904F9008950C947B1D24
:103CD0000F931F93CF93DF93EC010E947B1D8C0108
:103CE000CE010E94881C800F911FDF91CF911F9100
:103CF0000F9108955058BB27AA270ED075C166D1E1
:103D000030F06BD120F031F49F3F11F41EF45BC111
:103D10000EF4E095E7FB51C1E92F77D180F3BA1794
:103D2000620773078407950718F071F49EF58FC139
:103D30000EF4E0950B2EBA2FA02D0B01B9019001C6
:103D40000C01CA01A0011124FF27591B99F0593F0A
:103D500050F4503E68F11A16F040A22F232F342F52
:103D60004427585FF3CF469537952795A795F040A0
:103D70005395C9F77EF41F16BA0B620B730B840BB5
:103D8000BAF09150A1F0FF0FBB1F661F771F881F6D
:103D9000C2F70EC0BA0F621F731F841F48F48795C5
:103DA00077956795B795F7959E3F08F0B3CF9395B4
:103DB000880F08F09927EE0F979587950895D9D029
:103DC00008F481E008950CD00FC107D140F0FED077
:103DD00030F021F45F3F19F0F0C0511139C1F3C048
:103DE00014D198F39923C9F35523B1F3951B550BBF
:103DF000BB27AA2762177307840738F09F5F5F4FBE
:103E0000220F331F441FAA1FA9F333D00E2E3AF0FE
:103E1000E0E830D091505040E695001CCAF729D018
:103E2000FE2F27D0660F771F881FBB1F2617370767
:103E30004807AB07B0E809F0BB0B802DBF01FF2797
:103E400093585F4F2AF09E3F510568F0B6C000C1FD
:103E50005F3FECF3983EDCF3869577956795B795D1
:103E6000F7959F5FC9F7880F911D9695879597F9EC
:103E70000895E1E0660F771F881FBB1F6217730765
:103E80008407BA0720F0621B730B840BBA0BEE1F7A
:103E900088F7E095089504D06894B111D9C00895C9
:103EA000BCD088F09F5790F0B92F9927B751A0F058
:103EB000D1F0660F771F881F991F1AF0BA95C9F7BE
:103EC00012C0B13081F0C3D0B1E00895C0C0672FF7
:103ED000782F8827B85F39F0B93FCCF3869577956E
:103EE0006795B395D9F73EF4909580957095619557
:103EF0007F4F8F4F9F4F0895E89409C097FB3EF482
:103F000090958095709561957F4F8F4F9F4F992326
:103F1000A9F0F92F96E9BB279395F69587957795A4
:103F20006795B795F111F8CFFAF4BB0F11F460FF64
:103F30001BC06F5F7F4F8F4F9F4F16C0882311F0BC
:103F400096E911C0772321F09EE8872F762F05C0D0
:103F5000662371F096E8862F70E060E02AF09A956B
:103F6000660F771F881FDAF7880F9695879597F960
:103F70000895990F0008550FAA0BE0E8FEEF1616FA
:103F80001706E807F907C0F012161306E407F5074D
:103F900098F0621B730B840B950B39F40A2661F0C1
:103FA000232B242B252B21F408950A2609F4A14064
:103FB000A6958FEF811D811D089597F99F6780E871
:103FC00070E060E008959FEF80EC089500240A946B
:103FD0001616170618060906089500240A941216E4
:103FE0001306140605060895092E0394000C11F417
:103FF000882352F0BB0F40F4BF2B11F460FF04C0C4
:104000006F5F7F4F8F4F9F4F089557FD9058440F1C
:10401000551F59F05F3F71F04795880F97FB991F27
:1040200061F09F3F79F087950895121613061406E4
:10403000551FF2CF4695F1DF08C016161706180671
:10404000991FF1CF86957105610508940895E8944C
:10405000BB2766277727CB0197F908958ADF08F4F5
:104060008FEF08950BD0C0CFB1DF28F0B6DF18F086
:10407000952309F0A2CFA7CF1124EACFC6DFA0F382
:10408000959FD1F3950F50E0551F629FF001729FED
:10409000BB27F00DB11D639FAA27F00DB11DAA1F0C
:1040A000649F6627B00DA11D661F829F2227B00D59
:1040B000A11D621F739FB00DA11D621F839FA00DE4
:1040C000611D221F749F3327A00D611D231F849F34
:1040D000600D211D822F762F6A2F11249F5750408B
:1040E0008AF0E1F088234AF0EE0FFF1FBB1F661F26
:1040F000771F881F91505040A9F79E3F510570F0DF
:104100005CCFA6CF5F3FECF3983EDCF386957795C6
:104110006795B795F795E7959F5FC1F7FE2B880FD9
:10412000911D9695879597F9089523DF880B990B34
:10413000089597FB072E16F4009407D077FD09D059
:104140000E94CF2007FC05D03EF4909581959F4FAB
:104150000895709561957F4F0895A1E21A2EAA1BCC
:10416000BB1BFD010DC0AA1FBB1FEE1FFF1FA21727
:10417000B307E407F50720F0A21BB30BE40BF50B24
:10418000661F771F881F991F1A9469F760957095AD
:10419000809590959B01AC01BD01CF010895AA1BAC
:1041A000BB1B51E107C0AA1FBB1FA617B70710F022
:1041B000A61BB70B881F991F5A95A9F78095909554
:1041C000BC01CD010895EE0FFF1F0590F491E02D85
:1041D0000994FC0188279927E89421912032E9F37A
:1041E000293010F02E30C8F32B3241F02D3239F443
:1041F000689404C00E945221820F911D2191205386
:104200002A30C0F31EF4909581959F4F08951F9317
:10421000FC0199278827BC01E89411911032E9F339
:10422000193010F01E30C8F31B3251F01D3249F422
:10423000689406C00E943D21610F711D811D911D72
:10424000119110531A30B0F33EF49095809570950B
:1042500061957F4F8F4F9F4F1F910895FB01DC01A8
:104260004150504048F001900D920020C9F701C024
:104270001D9241505040E0F70895592F482F372F95
:10428000262F660F771F881F991F660F771F881FBD
:10429000991F620F731F841F951F660F771F881F5A
:1042A000991F08957AE0979F902D879F802D910DFB
:1042B00011240895DC01CB01FC01F999FECF06C061
:1042C000F2BDE1BDF89A319600B40D9241505040D4
:1042D000B8F70895F999FECF92BD81BDF89A992754
:1042E00080B50895DC01A40FB51F4150504048F03F
:1042F000CB01840F951F2E910E9483214150504085
:10430000D0F70895262FF999FECF92BD81BDF89A76
:10431000019700B4021639F01FBA20BD0FB6F89409
:10432000FA9AF99A0FBE0895262FF999FECF1FBA6F
:1043300092BD81BD20BD0FB6F894FA9AF99A0FBECE
:0843400001960895F894FFCFE7
:104348000120BF0200FF00FCE1A8A815027D042798
:1043580001BB034606340418060A04F205D8035BB9
:10436800014F05FFFFFFFE17FE1701322E312E31D8
:104378000056302E302E302E38004F636D204C54AE
:10438800480041646472657373204E6F6465203A17
:10439800200053656E736F722056616C7565203A04
:1043A80020004261747465727920566F6C7461677D
:1043B80065203A20002056004261747465727920A5
:1043C80070657263656E74203A200020250053746E
:1043D800617475732042617474657279203A2000A3
:1043E8004368617267696E67004661696C6564203D
:1043F80072656164696E672074656D706572617459
:104408007572652066726F6D204448540054656D5E
:1044180070203A20002043004661696C6564207270
:10442800656164696E672068756D6964697479206F
:1044380066726F6D204448540048756D203A20001C
:104448004E6F2044533138423230206465746563BE
:104458007465640044657465637465642000204471
:104468005331384232300044533138423230203AE6
:1044780020004C69676874203A2000202D2000280D
:104488006329204F636D2030362F32303137004E8C
:104498006F6465204944203A20005E00BC00770123
:1044A80000000000D51A411C571A701A621AB31A74
:1044B8000D0A006E616E00696E66006F7666002EEA
:0244C8000000F2
:00000001FF
