:100000000C94EC000C942F190C9456190C941401B8
:100010000C9414010C9414010C9490050C9414018C
:100020000C9414010C9414010C9414010C941401FC
:100030000C9414010C9414010C9414010C941401EC
:100040000C947D190C9414010C94911C0C94C31CF9
:100050000C9414010C9414010C9414010C941401CC
:100060000C9414010C9414010102040810201112C4
:10007000131415160A0B0C0D0E0F005EBCE2613F47
:10008000DD83C29C7E20A3FD1F419DC3217FFCA276
:10009000401E5F01E3BD3E6082DC237D9FC1421CA8
:1000A000FEA0E1BF5D0380DE3C62BEE0025CDF815A
:1000B000633D7C22C09E1D43A1FF4618FAA4277908
:1000C0009BC584DA3866E5BB5907DB856739BAE436
:1000D00006581947A5FB7826C49A653BD987045A68
:1000E000B8E6A7F91B45C6987A24F8A6441A99C71A
:1000F000257B3A6486D85B05E7B98CD2306EEDB3C8
:10010000510F4E10F2AC2F7193CD114FADF3702EF5
:10011000CC92D38D6F31B2EC0E50AFF1134DCE9027
:10012000722C6D33D18F0C52B0EE326C8ED0530DD9
:10013000EFB1F0AE4C1291CF2D73CA947628ABF587
:1001400017490856B4EA6937D58B5709EBB53668B5
:100150008AD495CB2977F4AA4816E9B7550B88D6E7
:10016000346A2B7597C94A14F6A8742AC896154B99
:10017000A9F7B6E80A54D7896B35000000080002D9
:10018000010000030407000000000000000001025D
:100190000408102040800102040810200102040815
:1001A00010200404040404040404020202020202F3
:1001B00003030303030300000000230026002900BB
:1001C00000000000250028002B0000000000240093
:1001D00027002A000405F31C11241FBECFEFD8E02E
:1001E000DEBFCDBF12E0A0E0B1E0EEE2F7E402C076
:1001F00005900D92A434B107D9F724E0A4E4B2E04D
:1002000001C01D92A835B207E1F711E0C8EDD1E0B9
:1002100004C02297FE010E94B321C43DD107C9F753
:100220000E94361F0C9495230C9400000F931F938B
:10023000CF93DF931F92CDB7DEB78C0169830E9405
:100240006D236981681741F0C8010F90DF91CF914C
:100250001F910F910C9487230F90DF91CF911F91E5
:100260000F910895CF92DF92EF92FF928EE00E945D
:10027000741A9093EF028093EE02BC01882777FDF9
:100280008095982F0E944C2020E030E040EA50E416
:100290000E94002120E030EC4FE754E40E94B11F9F
:1002A0009B01AC010E94491F6B017C016093EA0233
:1002B0007093EB028093EC029093ED022091F00298
:1002C0003091F1024091F2025091F3020E94AD1F71
:1002D0008823B9F1C092F002D092F102E092F202CA
:1002E000F092F30221E0B701A60185E692E00E94B8
:1002F000F00740E0BC0181E593E00E94670980912E
:10030000E9028823F1F066E171E087EB93E00E9457
:10031000741D4091EA025091EB026091EC027091E1
:10032000ED0222E030E087EB93E00E941F1F61E2C4
:1003300071E087EB93E0FF90EF90DF90CF900C940B
:10034000811DFF90EF90DF90CF90089561E084E0F1
:100350000E94F31A64EF71E080E090E00C94F619CB
:1003600060E084E00E94F31A64EF71E080E090E0C6
:100370000C94F619CF92DF92EF92FF920E94A601A1
:1003800060ED77E080E090E00E94F61980914903EB
:1003900090914A03019719F468EE73E002C060ED92
:1003A00077E0882777FD8095982F0E94F61980E4E2
:1003B00093E00E94F6136B017C019B01AC010E944B
:1003C0006321882341F08091E902882309F453C016
:1003D00064E271E04CC02091A7033091A8034091E2
:1003E000A9035091AA03C701B6010E94AD1F88233B
:1003F00009F441C0C092A703D092A803E092A903D8
:10040000F092AA0380910A01811110C026E636E617
:1004100046EE5FE3C701B6010E94002120E030E014
:1004200040E052E40E94491F6B017C0121E0B701CA
:10043000A60187EA92E00E94F00740E0BC0181E556
:1004400093E00E9467098091E9028823A1F068E4A3
:1004500071E087EB93E00E94741D22E030E0B70169
:10046000A60187EB93E00E941F1F60E571E087EB18
:1004700093E00E94811D80E493E00E94EA136B01E7
:100480007C019B01AC010E946321882319F063E584
:1004900071E037C02091A3033091A4034091A503DC
:1004A0005091A603C701B6010E94AD1F882369F1D0
:1004B000C092A303D092A403E092A503F092A603F6
:1004C00021E0B701A60188EC92E00E94F00740E02D
:1004D000BC0181E593E00E9467098091E9028823CD
:1004E000A1F064E771E087EB93E00E94741D22E0C5
:1004F00030E0B701A60187EB93E00E941F1F6BE776
:1005000071E087EB93E00E94811DFF90EF90DF90F8
:10051000CF900C94B0016DE280E090E00E94160153
:100520006AE070E080E090E00E94F61960E081E00F
:1005300090E00E9416016AE070E080E090E00E9486
:10054000F61960E083E090E00E9416016AE070E036
:1005500080E090E00E94F61960E084E090E00E9464
:1005600016016AE070E080E090E00E94F61960E019
:1005700085E090E00E9416016AE070E080E090E083
:100580000E94F61960E086E090E00E9416016AE0A1
:1005900070E080E090E00E94F61960E087E090E073
:1005A0000E9416016AE070E080E090E00E94F61977
:1005B00060E088E090E00E9416016AE070E080E070
:1005C00090E00E94F61960E089E090E00E94160138
:1005D0006AE070E080E090E00C94F61961E080E160
:1005E0000E94F31A62E370E080E090E00C94F61948
:1005F00060E080E10E94F31A62E370E080E090E046
:100600000C94F6190F93CF930E94EE0262E370E010
:1006100080E090E00E94F6198FE193E00E94891536
:1006200060E08FE193E00E94E8158FE193E00E9483
:10063000121490E09093FD028093FC02C0E06C2FB6
:1006400070E08091FC029091FD02681779076CF4CC
:1006500083E0660F771F8A95E1F761507D4F82E353
:1006600093E00E945A1881113BC08091FC02909146
:10067000FD022091E902892B59F4222331F06EE723
:1006800071E087EB93E00E94811D1092FE0224C06E
:1006900081E08093FE022223F9F062E971E087EBAA
:1006A00093E00E94741D6091FC027091FD024AE08B
:1006B00050E087EB93E00E942C1E6CE971E087EB21
:1006C00093E00E94811D00E024E332E046E064E014
:1006D00081E593E00E947709CF910F910C94F80285
:1006E000CF5FADCFCF92DF92EF92FF92CF93DF93A8
:1006F0000E94EE028091FE02882309F47BC062E32F
:1007000070E080E090E00E94F619CFEFD2E0E12C9B
:10071000F12C8091FC029091FD02E816F9065CF440
:100720004BE0BE018FE193E00E9413158FEFE81AB2
:10073000F80A2896EECF8FE193E00E94691667E7EA
:1007400071E080E090E00E94F6196FEF72E08FE1B7
:1007500093E00E94FA166B017C0120E030E04AEF42
:1007600052E40E94AD1F87FF45C020E030E040E228
:1007700052ECC701B6010E94FC201816DCF5A70157
:1007800096016091F8027091F9028091FA029091BD
:10079000FB020E94AD1F882369F121E0B701A60189
:1007A00084E492E00E94F00740E0BC0181E593E020
:1007B0000E946709C092F802D092F902E092FA0210
:1007C000F092FB028091E9028823A1F065EA71E0D2
:1007D00087EB93E00E94741D22E030E0B701A60190
:1007E00087EB93E00E941F1F60E571E087EB93E0C9
:1007F0000E94811DDF91CF91FF90EF90DF90CF900D
:100800000C94F802CF92DF92EF92FF9282E10E9465
:10081000741ABC01882777FD8095982F0E944C2080
:100820006B017C012091F4023091F5024091F602B7
:100830005091F7020E94AD1F882359F1C092F40233
:10084000D092F502E092F602F092F70221E0B701B1
:10085000A60186E892E00E94F00740E0BC0181E535
:1008600093E00E9467098091E902882391F060EB90
:1008700071E087EB93E00E94741D22E030E0B70145
:10088000A60187EB93E0FF90EF90DF90CF900C9460
:10089000211FFF90EF90DF90CF90089561E080E1FD
:1008A0000E94BA1A61E084E00E94BA1A60E08EE009
:1008B0000E94BA1A60910F0180E090E00C9416013A
:1008C0000F93CF93DF93CDB7DEB7A1970FB6F89410
:1008D000DEBF0FBECDBF0E948B0281E08093E90294
:1008E0000E944E040E94EE020E94A60164EF71E095
:1008F00080E090E00E94F6190FEF20E04FEF60E0FB
:1009000070E081E593E00E943C0A20E049EB51E071
:1009100062EC71E081E593E00E949D0940E050E0C7
:1009200063E180E493E00E94CA1361E1CE01449642
:100930000E943718BE016C5E7F4FCE0101960E9467
:1009400003148091E9028823F1F062EC71E087EBF7
:1009500093E00E94741D6AEC71E087EB93E00E94C3
:10096000741D69EB71E087EB93E00E94741D6AECE3
:1009700071E087EB93E00E94741D6EEC71E087EBF1
:1009800093E00E94811D00E024E332E047E060E054
:1009900081E593E00E94770924E332E046E061E0DC
:1009A00081E593E00E94770924E332E040E162E0D0
:1009B00081E593E00E94770924E332E04DE063E0B3
:1009C00081E593E00E9477090E940203A1960FB689
:1009D000F894DEBF0FBECDBFDF91CF910F91089588
:1009E0000E94BA010E9402040E9432010E94720316
:1009F00040910B0150910C0160910D0170910E011D
:100A000081E593E00C94740C0F931F93CF93DF93C5
:100A100082E090E00E94451F8C010E94A40585E1C0
:100A200090E00E94451FEC0123E04AE069E00E944B
:100A3000F30DA801BE0181E593E00E94FF0761E18B
:100A400082E393E00E94371862E373E08FE193E062
:100A50000E94031441E060E088EC92E00E94890764
:100A600040E061E087EA92E00E94890747E162E0A6
:100A700086E892E00E94890746E263E085E692E01C
:100A80000E94890740E064E084E492E0DF91CF9126
:100A90001F910F910C948907CF93CFB7F894809151
:100AA000AB03811127C0ECEAF1E08491E8E9F1E0C1
:100AB0009491E82FF0E0EE0FFF1FE653FE4FA59153
:100AC000B4918C91892321F461E08AE00E94F31AA9
:100AD00061E08AE00E94BA1A8CB580618CBD8CB549
:100AE00080648CBD61E08DE00E94BA1A61E08BE009
:100AF0000E94BA1A8091AB038F5F8093AB03CFBF84
:100B0000CF91089522EE31E0FC01318320830895D6
:100B100081E08093AC03089582E08093AC03089554
:100B20001F920F920FB60F9211248F9388E10FB688
:100B3000F89480936000109260000FBE8F910F9028
:100B40000FBE0F901F901895CF93DF93EC010E947A
:100B500082058CEE91E099838883DF91CF9108958F
:100B600020917A002F7720937A008A309105B1F096
:100B700083FF02C028E201C028E08770822B28E1B1
:100B800030E00FB6F894A895209360000FBE8093D4
:100B900060008091600080648093600083B7817FF3
:100BA000846083BFF89483B7816083BF85B7806614
:100BB00085BF8F7D85BF7894889583B78E7F83BFEF
:100BC000789480917A00806880937A000895CF931A
:100BD000DF9300D000D0CDB7DEB787EB93E0498339
:100BE0005A836B837C830E94AE1B1092AC034981B5
:100BF0005A816B817C818091AC0381112DC040347E
:100C00008FE158076105710588F089E090E049831C
:100C10005A836B837C830E94B00549815A816B8122
:100C20007C8140545F4161097109E5CF403AEFE0B2
:100C30005E076105710580F088E090E049835A8382
:100C40006B837C830E94B00549815A816B817C81D2
:100C5000405A5F40610971098091AC03811116C04F
:100C6000403DF7E05F076105710580F087E090E0A7
:100C700049835A836B837C830E94B00549815A81E2
:100C80006B817C81405D5740610971098091AC03A3
:100C9000811116C0483E83E058076105710580F058
:100CA00086E090E049835A836B837C830E94B00581
:100CB00049815A816B817C81485E53406109710989
:100CC0008091AC03811116C0443FE1E05E076105ED
:100CD000710580F085E090E049835A836B837C83C3
:100CE0000E94B00549815A816B817C81445F5140EB
:100CF000610971098091AC03811115C04A3F51050A
:100D00006105710580F084E090E049835A836B832C
:100D10007C830E94B00549815A816B817C814A5F46
:100D20005109610971098091AC03811115C04D37DA
:100D300051056105710580F083E090E049835A8395
:100D40006B837C830E94B00549815A816B817C81D1
:100D500048575109610971098091AC03811115C08F
:100D6000403451056105710580F082E090E04983CF
:100D70005A836B837C830E94B00549815A816B81C1
:100D80007C814C535109610971098091AC03811137
:100D900015C0403251056105710580F081E090E099
:100DA00049835A836B837C830E94B00549815A81B1
:100DB0006B817C814E515109610971098091AC03AD
:100DC00081110FC0403151056105710550F080E07F
:100DD00090E00F900F900F900F90DF91CF910C94B7
:100DE000B0050F900F900F900F90DF91CF91089565
:100DF0000C94E705BF92CF92DF92EF92FF920F9390
:100E00001F93CF93DF93EC01B62E6801790150E078
:100E100068E875E08B2D0E94FD18C114D104E1042F
:100E2000F10471F01092AC03B701A601CE010E944B
:100E3000E705C1E08091AC0381110BC0C0E009C09F
:100E400087EB93E00E94AE1B8AE090E00E94B00521
:100E5000C1E08B2D0E941D198C2FDF91CF911F9126
:100E60000F91FF90EF90DF90CF90BF900895BF92C9
:100E7000CF92DF92EF92FF920F931F93CF93DF9366
:100E8000EC01B62E122F50E068E875E08B2D0E9421
:100E9000FD18402F50E06CE875E0812F0E94FD188E
:100EA000C114D104E104F10461F01092AC03B70164
:100EB000A601CE010E94E7058091AC03882359F07A
:100EC00008C087EB93E00E94AE1B8AE090E00E948E
:100ED000B005C1E001C0CFEF8B2D0E941D19812FFD
:100EE0000E941D198091AC03813011F4CB2D03C0F9
:100EF000823009F4C12F8C2FDF91CF911F910F9178
:100F0000FF90EF90DF90CF90BF900895FC01128288
:100F10000895FC011282668345830895FC012481B3
:100F200022952695277011F40796089580E090E0A9
:100F30000895FC012481229526952770213011F413
:100F400087810895211104C007960E94E322089525
:100F500080E00895FC012481229526952770253094
:100F600029F467817085818592850895211103C0D8
:100F700007960C94012360E070E0CB010895CF93B5
:100F8000DF93EC01FB0101900020E9F73197E61BAC
:100F9000F70BE931F10508F0E9E14E2F50E0CA0105
:100FA000E3E0880F991FEA95E1F79B819770982BF2
:100FB0009B838C818F718C83CE0107960E94312395
:100FC000CE01DF91CF910895FC0183818770886005
:100FD000838384818F71806284836783CF010895C6
:100FE000FC0183818770886283838481806E84831F
:100FF00047835087618772872387CF010895EF92D7
:10100000FF920F931F93CF93DF93EC017B018A0133
:1010100007960E948607CE0188960E948607FE01E9
:10102000E75BFF4FF182E082C55BDF4F19830883E6
:10103000DF91CF911F910F91FF90EF900895DA010A
:1010400013962C9113972C7F226013962C9322FDDC
:1010500004C026952695269501C020E2FC0130812A
:10106000DA013C93E75BFF4F80819181DC01ED91D8
:10107000FC910680F781E02DA22FB0E05A9714F47E
:10108000295F01C020E209948F929F92AF92BF9294
:10109000CF92DF92EF92FF92CF93DF93EC016A0140
:1010A0007B010E94C7194B015C010E94C719681996
:1010B00079098A099B096C157D058E059F0520F429
:1010C000CE010E94B90AF1CFDF91CF91FF90EF904E
:1010D000DF90CF90BF90AF909F908F9008950F9327
:1010E0001F93CF93DF93EC01FC01E75BFF4F8081FF
:1010F0009181DC01ED91FC910280F381E02D68810A
:1011000009958E01095F1F4F8881888719868FEFA7
:101110008D8783E08C878B85807E83608B8764E3FB
:1011200072E0C8010E94BF07A8016981CE010E9438
:101130001F0840ED57E060E070E0CE01DF91CF91F5
:101140001F910F910C9444080F931F93CF93DF933B
:10115000EC018091AD03811129C081E08093AD0342
:10116000FE01E35BFF4F10828FEF8A838E01095FE0
:101170001F4F9881988789878D8787E08C878B851B
:10118000807E83608B8764E372E0C8010E94BF07A2
:10119000A8016FEFCE010E941F0840ED57E060E00C
:1011A00070E0CE010E9444081092AD03DF91CF9110
:1011B0001F910F910895CF92DF92FF920F931F938B
:1011C000CF93DF9300D0CDB7DEB76C01AB01FB014D
:1011D00011810281F080FC0181818F3F21F4C601E1
:1011E0000E94A4084BC0F60180818F3F21F4C60104
:1011F0000E946F0843C0FB0193819C7F92609383A0
:10120000F6018481002319F0811114C00CC08823D9
:1012100051F0812F90E06F2D039649835A830E94ED
:1012200075235A814981F6016181C6010E941F0818
:10123000082F32C0802F90E0039669835A830E9462
:101240006D239FEF980F49815A819E3F10F4682FBC
:1012500005C011110FC00F3F69F46FEFC6010F9069
:101260000F90DF91CF911F910F91FF90DF90CF9062
:101270000C941F08F6018681882311F080E01DC0C0
:10128000F6016181C6010E941F08082F812F90E09E
:101290006F2D03960E947523F601E35BFF4F01114A
:1012A0000AC080818F5F8083F6019581992331F395
:1012B000863020F394CF108281E00F900F90DF9161
:1012C000CF911F910F91FF90DF90CF900895FC0177
:1012D0002081FB0121832481207F2160F8E04F9F42
:1012E000A0011124242BFB0124830C94DB080F9311
:1012F0001F93CF93DF93EC016F3F19F482EF91E0DE
:1013000001C0C9012881288719866D874C8728E08C
:10131000029F800111242B85207F202B2F7E2B877D
:10132000BC01CE0107960E94BF07BC01CE01DF9130
:10133000CF911F910F910C94DB08EF92FF920F93C6
:101340001F93CF93DF931F92CDB7DEB77C018A0145
:1013500061157105E9F0FC018081808711868FEFAE
:1013600085878BE084873385307F3360F8E02F9F5B
:10137000C0011124382B3F7EF7013387C701079640
:1013800029830E94BF07BC01C7010E94DB08298195
:101390000115110519F1F7018081808711868FEF02
:1013A00085878CE084878385807F8360F8E02F9F2A
:1013B00090011124822B8F7EF7018387B801C7012A
:1013C00007960E94BF07BC01C7010F90DF91CF9124
:1013D0001F910F91FF90EF900C94DB080F90DF911D
:1013E000CF911F910F91FF90EF9008950F93CF939E
:1013F000DF93EC01FC01E75BFF4F80819181DC0111
:10140000ED91FC910280F381E02D688109958E8138
:1014100081112EC088818F3F59F18C81882311F072
:1014200042E101C041E100E024E332E06FEFCE0190
:101430000E94770969818881888719868FEF8D8757
:1014400086E08C878B85807E83608B87CE010796B4
:101450000E94E407BC01CE010E94DB0840ED57E08A
:1014600060E070E0CE01DF91CF910F910C944408C1
:10147000DF91CF910F910895DF92EF92FF920F933A
:101480001F93CF93DF93EC017B01142FD22E26E024
:1014900040E052EC61E070E087EB93E00E94351C85
:1014A000DC82FE01E05BFF4FF182E0823397108225
:1014B00081E0111180E08E83FE01E75BFF4F8081A8
:1014C0009181DC01ED91FC910190F081E02D099575
:1014D000811101C0FFCF8E81882321F019821A82E9
:1014E000188239C043E050E060E070E0CE010E9415
:1014F0005D2341E050E063E071E0CE0103960E947D
:101500005D238B818F3F11F481E08B8381E00F3F5E
:1015100009F080E08D83811109C00983602F81E08B
:1015200090E00E94752381E08A8306C089818F3F05
:1015300019F4CE010E94A4081F3F39F01883612FCF
:1015400080E090E00E94752306C088818F3F19F4E7
:1015500089818F3F51F4CE01DF91CF911F910F917F
:10156000FF90EF90DF900C94F609CE010E946F0877
:10157000F2CFDF92EF92FF920F931F93CF93DF93FF
:1015800000D01F92CDB7DEB78C01A89519827C01DF
:1015900029E4E20EF11CD7018D919C91DC01ED91C3
:1015A000FC910084F185E02DBE016F5F7F4F0995AE
:1015B000882309F48DC1F701808191817801F7E0DA
:1015C000EF0EF11CDC01ED91FC910284F385E02D1E
:1015D000B7010995F8018285982F9695969596956D
:1015E000E90FF11D1686982F9B7FD8011A969C93C0
:1015F0001A978370823009F06BC11B963C911B9740
:1016000037701C962C911C971896DC90189717969B
:101610006C9117978C9119964C91199714969C91EF
:1016200014974813FEC0992369F011968C9168179E
:1016300049F08D2D90E003962B833A830E94752309
:101640003A812B81F801838583FF24C081E237969C
:10165000D801989601900D928A95E1F7D8019C9651
:101660008C919C97877F80619C968C939C978C91A2
:1016700099968C93999718968C9118979A968C9323
:10168000B801685D7F4FC8012B833A830E94DB0855
:101690003A812B81333009F0B8C0283019F5F801B0
:1016A0008581882309F414C1C7010E9499078F3FDF
:1016B00009F40EC18F5F8F3F09F40AC1D801129659
:1016C0009C91891708F004C1F801828360856183C9
:1016D00081E090E00E947523D80112966C9182E01F
:1016E00090E0F4C0D11091C02D3061F428E088E181
:1016F00090E00FB6F894A895809360000FBE2093F9
:101700006000FFCF2430A9F4F80180818F3F09F0F9
:10171000DFC0C7010E949907D8018C938F3F09F45D
:10172000FFCFC8010E94F609F801608180E090E0D7
:10173000CDC0263071F4C7010E948E0761E0DC0144
:101740008C918D3409F060E0F801638383E091E0CF
:10175000BDC02A3009F047C0D80114968C91882367
:1017600009F4B6C0C7010E948E07FC018081833452
:1017700009F0AEC0DD24DA948D2D90E06FEF039672
:101780000E9475238FEF8D0DDD2011F0D82EF4CF40
:101790006FEF81E090E00E9475236FEF82E090E0B0
:1017A0000E947523C8010E94A408D8018C91189644
:1017B0008C93189719961C9219978FEF1D968C93FE
:1017C0001D978AE01C968C931C971B968C911B97F7
:1017D000807E83601B968C9364E372E0C7010E9455
:1017E000BF07BC016DC0213009F072C0F801E25B97
:1017F000FF4F008111810115110509F469C0C7016E
:101800000E94AA07F801099563C0F801E05BFF4F49
:101810000190F081E02D309709F456C0C701099579
:1018200053C0992309F454C08F3F09F451C0333099
:1018300009F042C0273009F03FC0D80111968C91C1
:101840001197D81609F444C012968C918F3F19F461
:10185000C8010E94A408F80182818F3FC9F10E944B
:10186000C719AB01BC01537066277727C8010E94D6
:101870004408D80112966C9112978C9118968C930B
:1018800018971996DC9219978FEF1D968C931D97D8
:1018900088E01C968C931C971B968C911B97807EDE
:1018A00083601B968C93C7010E94E407AC016D2DE9
:1018B000C8010E941F080CC09981981309C0B70184
:1018C000C8010E94DB0804C081E003C00E947523A8
:1018D00080E00F900F900F90DF91CF911F910F91AB
:1018E000FF90EF90DF9008950F931F93CF93DF93B6
:1018F00000D000D0CDB7DEB78C01FC01E75BFF4F15
:1019000080819181DC01ED91FC910484F585E02DCD
:1019100049835A836B837C830995F801E55BFF4F0C
:1019200080819181DC01ED91FC910190F081E02DAD
:1019300049815A816B817C810F900F900F900F909D
:10194000DF91CF911F910F9109942CEF31E0FC01B1
:10195000318320830895FC0183890895DF92EF92FB
:10196000FF920F931F93CF93DF938C01EC0122968C
:10197000CE010E945212CE010E94AD11D82E8823B2
:10198000A9F161E0CE010E94B01140E062E0CE0119
:101990000E94B811CE010E948F116CE4CE010E940A
:1019A000650FF8016489CE010E94ED1162E070E0DC
:1019B000CE010E9406124FE065E0CE010E94A912FE
:1019C00062E070E0CE010E943612CE010E947111D9
:1019D000EE24EA948CEFF82E01EE18EA28EA30E0C3
:1019E00040E050E062E0CE010E94AD108D2DDF910D
:1019F000CF911F910F91FF90EF90DF9008954F923C
:101A00005F927F928F929F92AF92BF92CF92DF921E
:101A1000EF92FF920F931F93CF93DF931F92CDB757
:101A2000DEB7FC01262F638B30E040E050E060E041
:101A300070E080E090E034504E41574567457F4F5D
:101A40008F4F9F4F922EA32EB42EC52ED62E782EBA
:101A5000892E2F0182E0480E511CE92CFA2C0B2D07
:101A60001C2D2D2D372F472D582D60E0C201798375
:101A70000E94AD102D2D7981372F472D582D61E013
:101A8000C2010E94AD10C2010F90DF91CF911F9152
:101A90000F91FF90EF90DF90CF90BF90AF909F900D
:101AA0008F907F905F904F900C942C11CF92DF928B
:101AB000EF92FF920F931F93CF93DF93D62E7A016D
:101AC000C22EEC012296CE010E94AD0FCE010E94E3
:101AD0006C0F2D2D30E040E050E060E070E080E0E1
:101AE00090E034504E41574567457F4F8F4F9F4F91
:101AF00089019A01AB01BC01CE010E94721021E064
:101B00008FEFD81220E04C2DB701CE010E94DB0FE1
:101B1000F82ECE010E942C118F2DDF91CF911F91B5
:101B20000F91FF90EF90DF90CF900895BF92CF92EA
:101B3000DF92EF92FF920F931F93CF93DF931F9249
:101B4000CDB7DEB77C018B01BB24BA94B9826C019E
:101B500082E0C80ED11CBE016F5F7F4FC6010E949C
:101B60001D108981813029F4F7018389F801808370
:101B700004C0823011F4F801B082C6010E946210E4
:101B8000882321F081E09981963008F080E00F9061
:101B9000DF91CF911F910F91FF90EF90DF90CF9049
:101BA000BF900895EF92FF921F93CF93DF9300D0E1
:101BB000CDB7DEB702967C0169837A830E94F90F64
:101BC000182F482F69817A81C7010E946610812FE2
:101BD0000F900F90DF91CF911F91FF90EF9008959C
:101BE00002960C949B0F0F931F93CF93DF9300D01B
:101BF0001F92CDB7DEB78C012B834A8369830E9485
:101C0000A50CEEE0F2E0D801ED93FD93CD014A8101
:101C100069810E945B0F2B81F801248B0F900F903C
:101C20000F90DF91CF911F910F9108958EBD00000D
:101C30000DB407FEFDCF8EB508952CB52F7D2CBDBC
:101C40002CB5237F2CBD2CB52C7F2CBD2DB5216050
:101C50002DBDFC0181810C94F31AFC0180819181DE
:101C600089130C94F31A08951F93CF93DF93EC011B
:101C7000162F60E00E941D0E812F8F710E94160E9C
:101C80008FEF0E94160E182F61E0CE010E941D0EEC
:101C9000812FDF91CF911F910895CF92DF92EF9224
:101CA000FF920F931F93CF93DF9300D0CDB7DEB792
:101CB0008C01E62EF22E60E049835A830E941D0EAD
:101CC0008E2D8F7180620E94160EE82E4981C42EDF
:101CD0005A81D52EF40EFC1431F0F60181916F017A
:101CE0000E94160EF8CF61E0C8010E941D0E8E2DD5
:101CF0000F900F90DF91CF911F910F91FF90EF9078
:101D0000DF90CF900895EF92FF921F93CF93DF93D0
:101D10001F92CDB7DEB77C01162F60E049830E9489
:101D20001D0E812F8F7180620E94160E182F49811F
:101D3000842F0E94160E61E0C7010E941D0E812FA4
:101D40000F90DF91CF911F91FF90EF900895AF9288
:101D5000BF92CF92DF92EF92FF920F931F93CF9398
:101D6000DF9300D0CDB7DEB78C01D62EFC01E38027
:101D7000F42EE41608F4FE2CF8018481811102C0CF
:101D8000EF1801C0E12C60E0C80129837A830E942A
:101D90001D0E2981822F0E94160EC82EAD2C7A812D
:101DA000B72EFD0CFA1431F0F50181915F010E940C
:101DB000160EF8CFEE2029F080E00E94160EEA946D
:101DC000F9CF61E0C8010E941D0E8C2D0F900F907D
:101DD000DF91CF911F910F91FF90EF90DF90CF9007
:101DE000BF90AF900895AF92BF92CF92DF92EF92E3
:101DF000FF920F931F93CF93DF931F92CDB7DEB760
:101E00008C01D62EFC01E380F42EE41608F4FE2C9F
:101E1000F8018481811102C0EF1801C0E12C60E05B
:101E2000C80179830E941D0E81E60E94160EC82EFD
:101E3000AD2C7981B72EFD0CFA1439F08FEF0E948A
:101E4000160EF50181935F01F7CFEE2029F08FEF99
:101E50000E94160EEA94F9CF61E0C8010E941D0E9F
:101E60008C2D0F90DF91CF911F910F91FF90EF90EC
:101E7000DF90CF90BF90AF9008951F93CF93DF93E3
:101E8000EC01162F60E00E941D0E812F0E94160E9D
:101E9000182F61E0CE010E941D0E812FDF91CF919E
:101EA0001F91089562EE0C943D0F61EE0C943D0F6E
:101EB0006FEF0C943D0FFC0160834183128280E23E
:101EC0008383148285E082870895462F603808F066
:101ED0004FE765E00C94830ECF93DF93EC0160E055
:101EE0000E942D0E82E890E00E94301A6DE1CE0132
:101EF0000E94340E81FF03C0CE010E94550F60E0A6
:101F0000CE010E94340E482F4E7F60E0CE010E9429
:101F1000830E62E0CE010E94340EE8E6F0E04491C8
:101F2000482B62E0CE010E94830E84E690E0DF91B0
:101F3000CF910C94301ACF93DF93EC0160E00E94B4
:101F40002D0E60E0CE010E94340E482F4D7F60E0E0
:101F5000CE01DF91CF910C94830ECF93DF93EC01F0
:101F600060E00E94340E81FD12C060E0CE010E944C
:101F7000340E482F426060E0CE010E94830E65E07F
:101F800070E080E090E0DF91CF910C94F619DF9142
:101F9000CF910895CF93DF93EC01222311F020EB32
:101FA00001C020EACE010E94A70E61E0CE01DF91C0
:101FB000CF910C942D0ECF93DF93EC010E94CA0FAA
:101FC000CE010E94580F8073D9F360E0CE010E94C9
:101FD0002D0E40E767E0CE010E94830E84FF05C00E
:101FE000CE010E94550F80E001C081E0DF91CF91CA
:101FF00008951F93CF93DF93EC0160E00E941D0EC4
:1020000080E60E94160E8FEF0E94160E182F61E0D8
:10201000CE010E941D0E113258F0CE010E94520FC7
:1020200062E070E080E090E00E94F61980E001C07C
:10203000812FDF91CF911F910895CF92DF92EF9280
:10204000FF920F931F93CF93DF93EC018B018F854A
:102050008823C9F00E94D319CB84DC84ED84FE84EC
:102060006C197D098E099F096032734081059105C5
:1020700018F48F858111EECF0E94D3196B877C876E
:102080008D879E871F8667E1CE010E94340E80FDFA
:102090000DC00115110561F0CE010E94580F90E0AE
:1020A000959587958770F801808302C080E001C014
:1020B00081E0DF91CF911F910F91FF90EF90DF9022
:1020C000CF90089560E070E00C941D10CF93DF93E3
:1020D000EC010E94F30E40E767E0CE01DF91CF9163
:1020E0000C94830EEF92FF920F931F93CF93DF9385
:1020F000CDB7DEB728970FB6F894DEBF0FBECDBFC1
:102100007C0109831A832B833C834D835E836F8319
:102110007887FC012285AE014F5F5F4F6AE00E9425
:102120004D0EF7012285AE014F5F5F4F60E1C701A1
:102130000E944D0EF701438161E1C7010E94830EA9
:1021400028960FB6F894DEBF0FBECDBFDF91CF91BA
:102150001F910F91FF90EF900895BF92CF92DF9261
:10216000EF92FF920F931F93CF93DF93CDB7DEB71C
:1021700028970FB6F894DEBF0FBECDBF6C01B62E08
:10218000E982FA820B831C832D833E834F83588719
:1021900061110AC0FC01428550E0BE016F5F7F4FB4
:1021A00005960E94282306C0F6E0F61778F181E034
:1021B000681308C0EB2DF0E0EC58FF4F6491F60176
:1021C000228506C0E62FF0E0EC58FF4F649121E035
:1021D000AE014F5F5F4FC6010E944D0E0B2D10E008
:1021E000F801E259FF4F6491F6014381C6010E9454
:1021F000830E62E0C6010E94340EF801E859FF4FD9
:102200004491482B62E0C6010E94830E28960FB6C7
:10221000F894DEBF0FBECDBFDF91CF911F910F911C
:10222000FF90EF90DF90CF90BF9008951F93CF93D2
:10223000DF93EC01162F62E00E94340EE12FF0E0F4
:10224000E859FF4F44914095482362E0CE01DF9169
:10225000CF911F910C94830ECF93DF93EC010E94DA
:10226000AD0F60E0CE010E94340E482F416060E067
:10227000CE010E94830E40E767E0CE010E94830EEC
:102280008D81882349F02A85AE014B5F5F4F6AE05C
:10229000CE010E944D0E04C060E0CE010E941611D6
:1022A0006DE1CE010E94340E81FF03C0CE010E9479
:1022B000550F61E0CE01DF91CF910C942D0ECF939D
:1022C000DF93EC0160E00E941D0E80E50E94160E77
:1022D00083E70E94160E61E0CE01DF91CF910C944E
:1022E0001D0ECF93DF93EC010E945F116DE1CE01D3
:1022F0000E94340E482F44606DE1CE010E94830E8F
:102300006CE1CE010E94340E482F4F636CE1CE0188
:102310000E94830E81E08C83DF91CF910895CF934B
:10232000DF93EC010E945F116DE1CE010E94340E3B
:10233000482F46606DE1CE010E94830E6CE1CE0114
:102340000E94340E482F43606CE1CE010E94830E40
:1023500081E08C83DF91CF910895FC018281089503
:10236000662311F04FE301C040E061E00C94830E5E
:10237000EF92FF921F93CF93DF931F92CDB7DEB7FB
:102380007C01162F673010F561E049830E94340EFE
:102390004981442349F041E050E0012E01C0440F3F
:1023A0000A94EAF7482B08C041E050E001C0440F0E
:1023B0001A95EAF74095482361E0C7010F90DF9135
:1023C000CF911F91FF90EF900C94830E0F90DF91AF
:1023D000CF911F91FF90EF9008951F93CF93DF93BC
:1023E000EC01162F66E00E94340E887F143020F432
:1023F000612F660F6F5F01C067E0462F482B66E0D4
:10240000CE01DF91CF911F910C94830EEF92FF923A
:102410000F931F93CF93DF931F92CDB7DEB77C014D
:102420008B0166E00E94340E282F277D02301105B3
:1024300011F4206204C00130110509F42860422F14
:1024400066E0C70129830E94830E66E0C7010E94EF
:10245000340E91E02981821390E0892F0F90DF9153
:10246000CF911F910F91FF90EF9008950F931F93BD
:10247000CF93DF93EC018B0160E00E94340E482F74
:10248000437F0115110531F00130110511F4486049
:1024900001C04C6060E0CE01DF91CF911F910F91A0
:1024A0000C94830ECF93DF93EC0188819981891777
:1024B00019F061E00E94BA1A89819881981719F081
:1024C00061E00E94BA1A0E944C0560E0CE010E94B1
:1024D0002D0E61E0CE010E941D0E65E070E080E0EF
:1024E00090E00E94F6194FE564E0CE010E94830E51
:1024F00062E070E0CE010E940612882311F081E0B4
:102500008A8360E070E0CE010E94061262E070E013
:10251000CE010E94361240E767E0CE010E94830E92
:102520006CE4CE010E94650FCE010E94520FCE01D5
:102530000E94550FCE010E94AD0F60E0CE010E94B7
:10254000340E482F4E7F60E0CE01DF91CF910C9486
:10255000830E20E1629FB00111244F70462B64E08E
:102560000C94830ECF93DF93EC010E94C719685B34
:102570007B40810991096D877E878F87988BDF91DA
:10258000CF9108954F925F927F928F929F92AF92D8
:10259000BF92CF92DF92EF92FF920F931F93CF9350
:1025A000DF931F92CDB7DEB72C010E94C719F2014D
:1025B00005851685278530896B017C01C01AD10AF3
:1025C000E20AF30A218532852130310529F407EE2C
:1025D00013E020E030E004C00FEC17E020E030E032
:1025E000C016D106E206F30608F4C3C0F2016587FF
:1025F00076878787908B40E050E060EC7FE74083F0
:10260000518362837383448355836683778360E059
:1026100080850E94F31A61E0F20180850E94BA1A57
:10262000F20181859285019739F462E170E080E0E2
:1026300090E00E94F61904C080E293E00E94301AF4
:1026400060E0F20180850E94BA1A61E0F2018085A3
:102650000E94F31A00E010E0A12CB12CC12CD12C67
:102660002DEF922E0E94D319762EF92DF1708F2E18
:10267000EF2EFF24E7FCF0940E94D31967196B3505
:1026800018F081E090E030C0F201808569830E94FB
:10269000291B69818E159F0579F397FC08C0882056
:1026A00031F0CC0CDD1C6F3110F06894C0F8FFE104
:1026B0009F1639F08FE3981205C08601C12CD12CEA
:1026C00001C056019394E0E59E12CCCF6B2D772785
:1026D000E12EF12C802F8A0D860F810F90E08C1552
:1026E0009D0531F082E090E0F2019487838741C03C
:1026F000F20181859285019779F480E090E00E9453
:102700004A20F2016483758386839783B70180E052
:1027100090E00E944A2025C0B50180E090E00E9430
:102720004A202DEC3CEC4CEC5DE30E940021F201D0
:102730006483758386839783B80177FF05C07F77AD
:1027400000271127061B170BB801882777FD8095F6
:10275000982F0E944C202DEC3CEC4CEC5DE30E9449
:102760000021F2016083718382839383F2011486D6
:1027700013860F90DF91CF911F910F91FF90EF90F3
:10278000DF90CF90BF90AF909F908F907F905F90A1
:102790004F9008950F931F93CF93DF93EC018A011D
:1027A00068875A8749870E94B212012B71F482E030
:1027B00090E09A878987CE010E94C2128B859C8502
:1027C0008130910511F49A878987DF91CF911F910C
:1027D0000F910895CF93DF93EC010E94C2126C8198
:1027E0007D818E819F81DF91CF910895CF93DF937B
:1027F000EC010E94C212688179818A819B81DF91FC
:10280000CF9108950895FC0182E094E1928B818B31
:10281000768365831482108289E0818381E08283DC
:1028200083830895FC0184810895CF93DF93EB01A6
:1028300067E0CE010E94F01891E02F81821390E0B2
:10284000892FDF91CF910895CF92DF92EF92FF927F
:102850000F931F93CF93DF9300D0CDB7DEB76C01FA
:10286000F42EE52EFC018581968169837A830E948E
:10287000FE1669817A81882311F1F601858196819E
:102880000E94F91740E06EEBF601858196810E9467
:102890009B170F2D1E2D89E0F82EF601858196815C
:1028A0000E94DD17F80181938F01FA94B1F7F601C8
:1028B000858196810E94FE1691E0813009F090E0BA
:1028C000892F0F900F90DF91CF911F910F91FF9063
:1028D000EF90DF90CF900895CF93DF93EA010E94AD
:1028E0002414882351F068E0CE010E94F01891E092
:1028F0002885821390E0892F01C080E0DF91CF917D
:102900000895EF92FF920F931F93CF93DF93EC0103
:102910008B017A018D819E810E94FE16B8018D8106
:102920009E810E94F91740E06EE48D819E810E9495
:102930009B1740E0F70162818D819E810E949B1769
:1029400040E0F70163818D819E810E949B17F80111
:102950008081803139F040E0F70164818D819E8172
:102960000E949B178D819E810E94FE16B8018D8169
:102970009E810E94F917B8018D819E810E94F917EE
:10298000488168E48D819E810E949B1764E170E01C
:1029900080E090E00E94F6198881882331F06AE097
:1029A00070E080E090E00E94F6198D819E81DF91B9
:1029B000CF911F910F91FF90EF900C94FE16EF9224
:1029C000FF921F93CF93DF9300D0CDB7DEB77C018A
:1029D000FC018581968169837A830E94FE16698154
:1029E0007A81F701858196810E94F91740E064EBB6
:1029F000F701858196810E949B17F7018581968159
:102A00000E947017182FF701858196810E94FE168B
:102A100081E0111180E00F900F90DF91CF911F9115
:102A2000FF90EF900895EF92FF920F931F93CF9333
:102A3000DF93CDB7DEB72A970FB6F894DEBF0FBE8F
:102A4000CDBF7C018B01242FAE014F5F5F4F2A87E2
:102A50000E946C142A858823D1F0F801808180318E
:102A6000C1F02B3041F02C3021F02A3031F48FE3CB
:102A700005C08FE703C08FE501C08FE18D83AE01F4
:102A80004F5F5F4FB801C7010E94811402C080E010
:102A900001C081E02A960FB6F894DEBF0FBECDBF0D
:102AA000DF91CF911F910F91FF90EF900895CF93F9
:102AB000DF93CDB7DEB729970FB6F894DEBF0FBE10
:102AC000CDBFFB0120812031D1F0AE014F5F5F4FC0
:102AD0000E946C14882379F08D818F3351F020F49B
:102AE0008F3149F489E00CC08F3539F08F3739F0D8
:102AF00002C08AE005C080E003C08BE001C08CE02A
:102B000029960FB6F894DEBF0FBECDBFDF91CF91EF
:102B10000895EF92FF920F931F93CF93DF93CDB75A
:102B2000DEB728970FB6F894DEBF0FBECDBF8C017D
:102B3000FC01858196810E942518F8011482FF24EA
:102B4000F394BE016F5F7F4FF801858196810E94EB
:102B50005A18882381F1BE016F5F7F4FC8010E9420
:102B60001514882371F3F8018081811108C0BE011A
:102B70006F5F7F4FC8010E94DF14811119C0F801F7
:102B8000E180BE016F5F7F4FC8010E9457158E150F
:102B900018F4F801818106C0BE016F5F7F4FC80144
:102BA0000E945715F801818384818F5F8483C9CF88
:102BB000F801F082E4CF28960FB6F894DEBF0FBE7E
:102BC000CDBFDF91CF911F910F91FF90EF900895AE
:102BD000FC0162830895CF93DF93CDB7DEB72997C9
:102BE0000FB6F894DEBF0FBECDBFAE014F5F5F4F93
:102BF0000E94241481E09981911101C080E02996FE
:102C00000FB6F894DEBF0FBECDBFDF91CF91089510
:102C10008F929F92AF92BF92CF92DF92EF92FF92EC
:102C20000F931F93CF93DF93EC018A0169506330B8
:102C300048F4E62FF0E0EE0FFF1FE45EFD4F8080CA
:102C4000918004C09EEE892E92E0992E0115110507
:102C500001F18B818823E9F0888181111AC00E94DB
:102C6000C7196B017C01AA2497FCA094BA2CB80167
:102C7000CE010E94EB1581111FC00E94C71968196F
:102C800079098A099B096C157D058E059F05A0F4BD
:102C9000EECFB401882777FD8095982FDF91CF91F3
:102CA0001F910F91FF90EF90DF90CF90BF90AF906A
:102CB0009F908F900C94F619DF91CF911F910F91F7
:102CC000FF90EF90DF90CF90BF90AF909F908F904C
:102CD0000895CF93DF93EC018D819E810E94FE16B3
:102CE0008D819E810E942118488164E48D819E819E
:102CF0000E949B178A81882341F040E050E069815F
:102D0000CE01DF91CF910C940816DF91CF910895F9
:102D1000FA01208148E0249F90011124818190E0F4
:102D2000982F8827990F990F990F282B392BDB01A2
:102D30008C918031C1F4678170E08681AB01481BC2
:102D40005109CA019695982F8827979587950E94D3
:102D5000672160517109207F53E0220F331F5A957C
:102D6000E1F7260F371FC9010895EF92FF920F93E5
:102D70001F93CF93DF93CDB7DEB729970FB6F894A3
:102D8000DEBF0FBECDBF8C017B01AE014F5F5F4F39
:102D90000E946C14882341F0AE014F5F5F4FB70172
:102DA000C8010E94881602C080E894EE29960FB6EA
:102DB000F894DEBF0FBECDBFDF91CF911F910F9171
:102DC000FF90EF900895813824EE920774F0BC01D3
:102DD000882777FD8095982F0E944C2020E030E0D6
:102DE00040E05CE30E940021089560E070E08EEF17
:102DF00092EC08950E94B5160C94E316FF920F937F
:102E00001F93CF93DF93FC010081C181D281F8949D
:102E10008981F02EF0948F21898378941DE71150D9
:102E200029F182E090E00E94301A88818023B9F372
:102E3000F8948A818F218A838981802B8983789471
:102E400080EE91E00E94301AF89489818F21898365
:102E500086E490E00E94301A8881802311E009F016
:102E600010E078948AE991E00E94301A812FDF9176
:102E7000CF911F910F91FF9008951F93CF93DF93F0
:102E8000FC011081C181D281912F909560FF12C009
:102E9000F8948A8189238A838981812B89838AE0B6
:102EA00090E00E94301A8A81812B8A83789487E38C
:102EB00090E011C0F8948A8189238A838981812BCB
:102EC000898381E490E00E94301A8A81812B8A8371
:102ED000789485E090E0DF91CF911F910C94301AA7
:102EE0000F931F93CF93DF93FC011081C181D28197
:102EF000F8948981812B89838A81012F0095802311
:102F00008A8383E090E00E94301A8981802389833C
:102F10008AE090E00E94301AC881789485E390E0BE
:102F20000E94301A1C2381E009F480E0DF91CF91E8
:102F30001F910F910895CF92DF92EF92FF920F931E
:102F40001F93CF93DF931F92CDB7DEB76C01E62EB0
:102F500008E010E0FF24F39461E09F2D9E2109F426
:102F600060E0C60149830E943D17FF0C0150110922
:102F700049810115110581F7411115C0F894D60159
:102F80001196ED91FC91129791818C9180958923F6
:102F900081831196ED91FC91129792818C9180958D
:102FA0008923828378940F90DF91CF911F910F91A5
:102FB000FF90EF90DF90CF900895EF92FF920F93E4
:102FC0001F93CF93DF938C01C8E0D0E0F12CEE2467
:102FD000E394C8010E9470178111FE28EE0C21971E
:102FE000C1F78F2DDF91CF911F910F91FF90EF903F
:102FF0000895CF92DF92FF920F931F93CF93DF93A9
:103000001F92CDB7DEB78C01F62E40E065E57983DF
:103010000E949B17CF2C7981D72E88E0F82EF601DD
:1030200061916F0140E0C8010E949B17FA94B9F7C3
:103030000F90DF91CF911F910F91FF90DF90CF9074
:10304000089540E06CEC0C949B17FC0113861586E8
:10305000148627E030E0DF01A20FB31F13961C9205
:103060002115310519F021503109F5CF08951F932D
:10307000CF93DF93EC01162F60E0812F0E94BA1AE4
:10308000612F70E0FB01E257FE4FE491E883FB0102
:10309000EE55FE4FE491F0E0EE0FFF1FEA54FE4FB5
:1030A000859194919A838983CE01DF91CF911F916D
:1030B0000C942518AF92BF92CF92DF92EF92FF92BD
:1030C0000F931F93CF93DF931F92CDB7DEB75C01B1
:1030D000D62EE72EFC01858581115DC0C5010E94B9
:1030E000FE16811105C0F5011386158614866CC085
:1030F00040E060EFC5010E949B1701E0F12CC12C5C
:1031000011E0C5010E947017682FC50169830E94F4
:1031100070176981613019F48130B9F433C02F2DF3
:1031200030E068131BC0F5018385181730F4E20FF7
:10313000F31F8381802349F402C0181731F060E047
:10314000193058F4F501148708C0F501EF0DF11D91
:103150008381802B838361E009C0C12EF501E20FDA
:10316000F31F8381902F909589238383C5010E944B
:103170003D171F5F000F11F4F39401E0F7E0FF1516
:1031800008F0BFCF113438F0F501C386C11009C073
:1031900081E0858706C0F50113861586148680E0D8
:1031A00013C0F50183818823B1F3ED2DFE2D80E05E
:1031B00090E0D501A80FB91F13962C912193019689
:1031C00088309105B1F781E00F90DF91CF911F9189
:1031D0000F91FF90EF90DF90CF90BF90AF90089548
:1031E000DC0180E0615038F0ED91E827F0E0E6582E
:1031F000FF4F8491F7CF089508958230E8F4E82FC7
:10320000F0E0EE0FFF1FEF5EFE4F718360838130B1
:1032100041F0809169008C7F842B80936900E89A4B
:10322000089580916900440F551F440F551F837FF7
:10323000842B80936900E99A0895823078F4813074
:1032400011F0E89801C0E998E82FF0E0EE0FFF1FB9
:10325000EF5EFE4F8CEF98E19183808308951F927B
:103260000F920FB60F9211242F933F934F935F93BA
:103270006F937F938F939F93AF93BF93EF93FF933E
:10328000E0911101F09112010995FF91EF91BF9129
:10329000AF919F918F917F916F915F914F913F91EE
:1032A0002F910F900FBE0F901F9018951F920F92A5
:1032B0000FB60F9211242F933F934F935F936F9309
:1032C0007F938F939F93AF93BF93EF93FF93E0917F
:1032D0001301F09114010995FF91EF91BF91AF9106
:1032E0009F918F917F916F915F914F913F912F911E
:1032F0000F900FBE0F901F9018951F920F920FB650
:103300000F9211242F933F938F939F93AF93BF936B
:103310008091AF039091B003A091B103B091B2033B
:103320003091AE0326E0230F2D3720F40296A11D25
:10333000B11D05C029E8230F0396A11DB11D2093DF
:10334000AE038093AF039093B003A093B103B09307
:10335000B2038091B3039091B403A091B503B091EF
:10336000B6030196A11DB11D8093B3039093B403DE
:10337000A093B503B093B603BF91AF919F918F9186
:103380003F912F910F900FBE0F901F9018952FB760
:10339000F8946091AF037091B0038091B103909164
:1033A000B2032FBF08953FB7F8948091B303909173
:1033B000B403A091B503B091B60326B5A89B05C090
:1033C0002F3F19F00196A11DB11D3FBF6627782F31
:1033D000892F9A2F620F711D811D911D43E0660F89
:1033E000771F881F991F4A95D1F708958F929F9252
:1033F000AF92BF92CF92DF92EF92FF926B017C016E
:103400000E94D3194B015C01C114D104E104F10401
:10341000F1F00E94471F0E94D319681979098A099F
:103420009B09683E73408105910570F321E0C21A43
:10343000D108E108F10888EE880E83E0981EA11CEF
:10344000B11CC114D104E104F10429F7DDCFFF90D0
:10345000EF90DF90CF90BF90AF909F908F900895A6
:103460008330910528F0880F991F04970197F1F791
:103470000895789484B5826084BD84B5816084BDEC
:1034800085B5826085BD85B5816085BDEEE6F0E0DD
:10349000808181608083E1E8F0E010828081826039
:1034A0008083808181608083E0E8F0E080818160BA
:1034B0008083E1EBF0E0808184608083E0EBF0E0EA
:1034C000808181608083EAE7F0E08081846080838E
:1034D00080818260808380818E7F8083808180680C
:1034E00080831092C10008958E3008F08E5087704E
:1034F0002091150190E4299F90011124822B809343
:103500007C0080917A00806480937A0080917A00B8
:1035100086FDFCCF809178002091790090E0922B7D
:103520000895833081F028F4813099F08230A1F041
:1035300008958730A9F08830B9F08430D1F48091B3
:1035400080008F7D03C0809180008F778093800002
:10355000089584B58F7702C084B58F7D84BD0895AA
:103560008091B0008F7703C08091B0008F7D8093F1
:10357000B0000895CF93DF9390E0FC01E257FE4F37
:103580002491FC01EE55FE4F8491882349F190E08F
:10359000880F991FFC01E653FE4FA591B49180540A
:1035A0009E4FFC01C591D4919FB7611108C0F8945A
:1035B0008C91209582238C93888182230AC062306B
:1035C00051F4F8948C91322F309583238C93888119
:1035D000822B888304C0F8948C91822B8C939FBF9C
:1035E000DF91CF9108950F931F93CF93DF931F9295
:1035F000CDB7DEB7282F30E0F901E658FE4F8491B1
:10360000F901E257FE4F1491F901EE55FE4F049176
:103610000023C9F0882321F069830E94911A6981EF
:10362000E02FF0E0EE0FFF1FE054FE4FA591B491A4
:103630009FB7F8948C91611103C01095812301C04C
:10364000812B8C939FBF0F90DF91CF911F910F9192
:103650000895CF93DF93282F30E0F901E658FE4F0D
:103660008491F901E257FE4FD491F901EE55FE4FD6
:10367000C491CC2391F081110E94911AEC2FF0E0BB
:10368000EE0FFF1FEA54FE4FA591B4912C912D230C
:1036900081E090E021F480E002C080E090E0DF91E2
:1036A000CF910895FC01818D228D90E0805C9F4F29
:1036B000821B91098F7399270895FC01918D828D4A
:1036C000981731F0828DE80FF11D858D90E00895F7
:1036D0008FEF9FEF0895FC01918D828D981761F017
:1036E000828DDF01A80FB11D5D968C91928D9F5F39
:1036F0009F73928F90E008958FEF9FEF089589EE6A
:103700009CE1892B49F080E090E0892B29F00E9410
:10371000E91C81110C9400000895FC01848DDF01E7
:10372000A80FB11DA35ABF4F2C91848D90E0019634
:103730008F739927848FA689B7892C93A089B18923
:103740008C9180648C93938D848D981306C002882D
:10375000F389E02D80818F7D80830895CF93DF935F
:10376000EC01888D8823C9F0EA89FB89808185FD79
:1037700005C0A889B9898C9186FD0FC00FB607FCDA
:10378000F5CF808185FFF2CFA889B9898C9185FF1B
:10379000EDCFCE010E948D1BE7CFDF91CF91089531
:1037A000CF92DF92FF920F931F93CF93DF931F92DD
:1037B000CDB7DEB76C0181E0D60158968C9358974F
:1037C0005B969C915B975C968C915C97981307C075
:1037D0005096ED91FC915197808185FD2EC0F601A8
:1037E000038D10E00F5F1F4F0F731127F02EF601AE
:1037F000848DF81211C00FB607FCF9CFD601509690
:10380000ED91FC915197808185FFF1CFC6016983CD
:103810000E948D1B6981EBCF838DE80FF11DE35A68
:10382000FF4F6083D6015B960C935B975296ED91A8
:10383000FC915397808180620CC0D6015696ED9121
:10384000FC91579760835096ED91FC915197808140
:103850008064808381E090E00F90DF91CF911F9191
:103860000F91FF90DF90CF900895BF92CF92DF929B
:10387000EF92FF92CF93DF93EC016A017B01B22EAE
:1038800060E874E88EE190E0A70196010E947B2138
:10389000215031094109510956954795379527958A
:1038A000E889F98982E08083211580E1380798F062
:1038B000E889F989108260E472E48FE090E0A70162
:1038C00096010E947B2121503109410951095695E9
:1038D000479537952795EC85FD853083EE85FF85E7
:1038E0002083188EEC89FD89B082EA89FB8980816A
:1038F00080618083EA89FB89808188608083EA898E
:10390000FB89808180688083EA89FB8980818F7D43
:103910008083DF91CF91FF90EF90DF90CF90BF90A9
:1039200008951F920F920FB60F9211242F938F9329
:103930009F93EF93FF93E091C703F091C8038081B9
:10394000E091CD03F091CE0382FD12C09081809171
:10395000D0038F5F8F732091D103821751F0E091D4
:10396000D003F0E0E954FC4F958F8093D00301C061
:103970008081FF91EF919F918F912F910F900FBEBA
:103980000F901F9018951F920F920FB60F9211244F
:103990002F933F934F935F936F937F938F939F9357
:1039A000AF93BF93EF93FF9387EB93E00E948D1B40
:1039B000FF91EF91BF91AF919F918F917F916F9107
:1039C0005F914F913F912F910F900FBE0F901F90DD
:1039D000189587EB93E00E94521B21E0892B09F494
:1039E00020E0822F08951092BA031092B90388EE56
:1039F00093E0A0E0B0E08093BB039093BC03A0935E
:103A0000BD03B093BE0386E292E09093B803809327
:103A1000B70385EC90E09093C4038093C30384ECD8
:103A200090E09093C6038093C50380EC90E0909360
:103A3000C8038093C70381EC90E09093CA038093FE
:103A4000C90382EC90E09093CC038093CB0386EC87
:103A500090E09093CE038093CD031092D003109208
:103A6000D1031092D2031092D3030895CF92DF9224
:103A7000EF92FF920F931F93CF93DF937C016A0124
:103A8000EB0100E010E00C151D0571F06991D70104
:103A9000ED91FC910190F081E02DC7010995892BF2
:103AA00019F00F5F1F4FEFCFC801DF91CF911F912A
:103AB0000F91FF90EF90DF90CF9008956115710501
:103AC00081F0DB010D900020E9F7AD014150510973
:103AD000461B570BDC01ED91FC910280F381E02D38
:103AE000099480E090E008950C945E1DDC01ED9156
:103AF000FC910190F081E02D099462E372E00C9456
:103B00005E1D0F931F93CF93DF93EC010E945E1D08
:103B10008C01CE010E947D1D800F911FDF91CF91FE
:103B20001F910F9108958F929F92AF92BF92DF9253
:103B3000EF92FF920F931F93CF93DF93CDB7DEB732
:103B4000A1970FB6F894DEBF0FBECDBF7C01F42F56
:103B5000D52ECB0119A2223008F42AE08E010F5D88
:103B60001F4F822E912CA12CB12C6F2F7D2DA501E2
:103B700094010E947B21F22FD32ECA01015011091A
:103B80006A3014F4E0E301C0E7E3E60FD801EC93F8
:103B9000232B242B252B49F7B801C7010E945E1D5A
:103BA000A1960FB6F894DEBF0FBECDBFDF91CF91C7
:103BB0001F910F91FF90EF90DF90BF90AF909F907B
:103BC0008F900895CF92DF92EF92FF920F931F9301
:103BD000CF93DF93EC016A017B012115310579F464
:103BE000E881F9810190F081E02D642FDF91CF9180
:103BF0001F910F91FF90EF90DF90CF9009942A30A2
:103C00003105E9F477FF1AC06DE20E94761D8C0140
:103C100044275527BA014C195D096E097F092AE02E
:103C2000CE010E94931D800F911FDF91CF911F91B4
:103C30000F91FF90EF90DF90CF9008952AE0B701A9
:103C4000A601CE01DF91CF911F910F91FF90EF90D0
:103C5000DF90CF900C94931D9A01AB01662757FD1E
:103C60006095762F0C94E21D4F925F926F927F9237
:103C70008F929F92AF92BF92CF92DF92EF92FF927C
:103C80000F931F93CF93DF93EC016A017B01B22E58
:103C90009A01AB01C701B6010E946321882319F084
:103CA00065E372E027C026013701E89477F82FEF2B
:103CB0003FEF4FE75FE7C301B2010E94632181112B
:103CC0000DC02FEF3FEF4FE75FE7C301B2010E9446
:103CD000AD1F18161CF469E372E00CC02FEF3FEF24
:103CE0004FE75FE4C701B6010E94FC201816ACF450
:103CF0006DE372E0CE01DF91CF911F910F91FF90A4
:103D0000EF90DF90CF90BF90AF909F908F907F907B
:103D10006F905F904F900C945E1D2FEF3FEF4FE739
:103D20005FECC701B6010E94AD1F87FDE1CF20E027
:103D300030E0A901C701B6010E94AD1F87FF0AC08C
:103D40006DE2CE010E94761D8C01F7FAF094F7F82F
:103D5000F09402C000E010E0A12C60E070E080E090
:103D60009FE3AB1441F020E030E040E251E40E94D8
:103D7000B11FA394F6CF9B01AC01C701B6010E940D
:103D8000491F6B017C010E941E202B013C010E94F7
:103D90004A209B01AC01C701B6010E94481F6B017C
:103DA0007C012AE0B301A201CE010E94931D080FFD
:103DB000191FBB2039F061E472E0CE010E945E1D44
:103DC000080F191F7B2C772041F120E030E040E202
:103DD00051E4C701B6010E9400216B017C010E94E1
:103DE00019204B01AA2497FCA094BA2C2AE030E0B9
:103DF000B501A401CE010E94E21D080F191FC501E3
:103E0000B4010E944C209B01AC01C701B6010E9485
:103E1000481F6B017C017A94D6CFC801DF91CF9106
:103E20001F910F91FF90EF90DF90CF90BF90AF90D8
:103E30009F908F907F906F905F904F9008950C941B
:103E4000341E0F931F93CF93DF93EC010E94341E17
:103E50008C01CE010E947D1D800F911FDF91CF91BB
:103E60001F910F9108950E94DE2208950E94391A31
:103E70000E94351F0E946004CFE7DBE10E94F0043E
:103E80002097E1F30E947F1BF9CF0C94B72108958E
:103E90005058BB27AA270ED075C166D130F06BD120
:103EA00020F031F49F3F11F41EF45BC10EF4E09555
:103EB000E7FB51C1E92F77D180F3BA176207730787
:103EC0008407950718F071F49EF58FC10EF4E09504
:103ED0000B2EBA2FA02D0B01B90190010C01CA01C4
:103EE000A0011124FF27591B99F0593F50F4503E6F
:103EF00068F11A16F040A22F232F342F4427585F61
:103F0000F3CF469537952795A795F0405395C9F778
:103F10007EF41F16BA0B620B730B840BBAF0915030
:103F2000A1F0FF0FBB1F661F771F881FC2F70EC0CF
:103F3000BA0F621F731F841F48F4879577956795A2
:103F4000B795F7959E3F08F0B3CF9395880F08F08B
:103F50009927EE0F979587950895D9D008F481E0B9
:103F600008950CD00FC107D140F0FED030F021F4FD
:103F70005F3F19F0F0C0511139C1F3C014D198F36B
:103F80009923C9F35523B1F3951B550BBB27AA27DA
:103F900062177307840738F09F5F5F4F220F331F4C
:103FA000441FAA1FA9F333D00E2E3AF0E0E830D018
:103FB00091505040E695001CCAF729D0FE2F27D01B
:103FC000660F771F881FBB1F261737074807AB07E9
:103FD000B0E809F0BB0B802DBF01FF2793585F4F5E
:103FE0002AF09E3F510568F0B6C000C15F3FECF378
:103FF000983EDCF3869577956795B795F7959F5F23
:10400000C9F7880F911D9695879597F90895E1E076
:10401000660F771F881FBB1F621773078407BA07D5
:1040200020F0621B730B840BBA0BEE1F88F7E09530
:10403000089504D06894B111D9C00895BCD088F017
:104040009F5790F0B92F9927B751A0F0D1F0660F84
:10405000771F881F991F1AF0BA95C9F712C0B1309F
:1040600081F0C3D0B1E00895C0C0672F782F8827B2
:10407000B85F39F0B93FCCF3869577956795B395DE
:10408000D9F73EF490958095709561957F4F8F4F4D
:104090009F4F0895E89409C097FB3EF49095809552
:1040A000709561957F4F8F4F9F4F9923A9F0F92FFE
:1040B00096E9BB279395F695879577956795B7957C
:1040C000F111F8CFFAF4BB0F11F460FF1BC06F5F62
:1040D0007F4F8F4F9F4F16C0882311F096E911C074
:1040E000772321F09EE8872F762F05C0662371F095
:1040F00096E8862F70E060E02AF09A95660F771FA9
:10410000881FDAF7880F9695879597F90895990F84
:104110000008550FAA0BE0E8FEEF16161706E80791
:10412000F907C0F012161306E407F50798F0621BB2
:10413000730B840B950B39F40A2661F0232B242B87
:10414000252B21F408950A2609F4A140A6958FEFA6
:10415000811D811D089597F99F6780E870E060E0F8
:1041600008959FEF80EC089500240A941616170610
:1041700018060906089500240A9412161306140658
:1041800005060895092E0394000C11F4882352F0BB
:10419000BB0F40F4BF2B11F460FF04C06F5F7F4F73
:1041A0008F4F9F4F089557FD9058440F551F59F05A
:1041B0005F3F71F04795880F97FB991F61F09F3F14
:1041C00079F087950895121613061406551FF2CF3D
:1041D0004695F1DF08C0161617061806991FF1CF8D
:1041E00086957105610508940895E894BB276627B4
:1041F0007727CB0197F908958ADF08F48FEF0895A8
:104200000BD0C0CFB1DF28F0B6DF18F0952309F04E
:10421000A2CFA7CF1124EACFC6DFA0F3959FD1F399
:10422000950F50E0551F629FF001729FBB27F00D64
:10423000B11D639FAA27F00DB11DAA1F649F6627B9
:10424000B00DA11D661F829F2227B00DA11D621F08
:10425000739FB00DA11D621F839FA00D611D221FC2
:10426000749F3327A00D611D231F849F600D211DA6
:10427000822F762F6A2F11249F5750408AF0E1F049
:1042800088234AF0EE0FFF1FBB1F661F771F881F92
:1042900091505040A9F79E3F510570F05CCFA6CFDA
:1042A0005F3FECF3983EDCF3869577956795B7957D
:1042B000F795E7959F5FC1F7FE2B880F911D9695A7
:1042C000879597F9089523DF880B990B089597FB3D
:1042D000072E16F4009407D077FD09D00E949D2187
:1042E00007FC05D03EF4909581959F4F08957095F9
:1042F00061957F4F0895A1E21A2EAA1BBB1BFD01F9
:104300000DC0AA1FBB1FEE1FFF1FA217B307E407B4
:10431000F50720F0A21BB30BE40BF50B661F771F0C
:10432000881F991F1A9469F76095709580959095EC
:104330009B01AC01BD01CF010895AA1BBB1B51E13C
:1043400007C0AA1FBB1FA617B70710F0A61BB70B05
:10435000881F991F5A95A9F780959095BC01CD01AA
:104360000895EE0FFF1F0590F491E02D0994CF936F
:10437000DF938230910510F482E090E0E0915604E2
:10438000F091570420E030E0A0E0B0E0309739F140
:104390004081518148175907B8F04817590771F4FF
:1043A00082819381109729F013969C938E93129794
:1043B0002CC0909357048093560427C021153105D3
:1043C00031F04217530718F0A901DB0101C0EF01DA
:1043D0009A01BD01DF010280F381E02DD7CF2115C5
:1043E0003105F9F0281B390B2430310580F48A811E
:1043F0009B816115710521F0FB019383828304C0C9
:104400009093570480935604FE01329644C0FE01F7
:10441000E20FF31F8193919322503109398328834E
:104420003AC02091540430915504232B41F420913B
:1044300002013091030130935504209354042091DC
:104440000001309101012115310541F42DB73EB72E
:104450004091040150910501241B350BE091540457
:10446000F0915504E217F307A0F42E1B3F0B281719
:10447000390778F0AC014E5F5F4F2417350748F0DD
:104480004E0F5F1F509355044093540481939193B2
:1044900002C0E0E0F0E0CF01DF91CF910895CF932B
:1044A000DF93009709F487C0FC01329713821282D0
:1044B000C0915604D0915704209781F42081318116
:1044C000280F391F80915404909155048217930747
:1044D00079F5F0935504E09354046DC0DE0120E0BB
:1044E00030E0AE17BF0750F412964D915C911397D0
:1044F0009D014115510509F1DA01F3CFB383A28380
:1045000040815181840F951F8A179B0771F48D910B
:104510009C911197840F951F029691838083129628
:104520008D919C911397938382832115310529F4F2
:10453000F0935704E09356043EC0D9011396FC93C0
:10454000EE9312974D915D91A40FB51FEA17FB07EB
:1045500079F480819181840F951F0296D90111967B
:104560009C938E938281938113969C938E93129742
:10457000E0E0F0E08A819B81009719F0FE01EC01F8
:10458000F9CFCE01029628813981820F931F2091A5
:104590005404309155042817390769F4309729F4E9
:1045A000109257041092560402C013821282D093C4
:1045B0005504C0935404DF91CF91089581E090E0B9
:1045C000F8940C949523FC0188279927E89421916D
:1045D0002032E9F3293010F02E30C8F32B3241F0AD
:1045E0002D3239F4689404C00E945523820F911D26
:1045F000219120532A30C0F31EF4909581959F4F4E
:1046000008951F93FC0199278827BC01E894119114
:104610001032E9F3193010F01E30C8F31B3251F09C
:104620001D3249F4689406C00E944023610F711D39
:10463000811D911D119110531A30B0F33EF49095E5
:104640008095709561957F4F8F4F9F4F1F91089573
:10465000FB01DC0102C001900D9241505040D8F79F
:104660000895FB01DC014150504048F001900D924B
:104670000020C9F701C01D9241505040E0F7089555
:10468000592F482F372F262F660F771F881F991F06
:10469000660F771F881F991F620F731F841F951F56
:1046A000660F771F881F991F08957AE0979F902DB6
:1046B000879F802D910D11240895DC01CB01FC0111
:1046C000F999FECF06C0F2BDE1BDF89A319600B46B
:1046D0000D9241505040B8F70895F999FECF92BD20
:1046E00081BDF89A992780B50895262FF999FECFB4
:1046F00092BD81BDF89A019700B4021639F01FBA35
:1047000020BD0FB6F894FA9AF99A0FBE0895262F95
:10471000F999FECF1FBA92BD81BD20BD0FB6F894A6
:0E472000FA9AF99A0FBE01960895F894FFCF09
:10472E00000058048000010000000120BF02002D8F
:10473E0000FC18FC180142617474657279203A20ED
:10474E00002056004661696C65642072656164697B
:10475E006E672074656D7065726174757265206622
:10476E00726F6D204448540054656D70203A2000DD
:10477E002043004661696C65642072656164696EF0
:10478E00672068756D69646974792066726F6D2033
:10479E004448540048756D203A20002025004E6F85
:1047AE002044533138423230206465746563746539
:1047BE00640044657465637465642000204453315D
:1047CE00384232300044533138423230203A2000E1
:1047DE004C69676874203A200056302E302E302EE9
:1047EE0035004F636D204C544800202D2000286367
:1047FE0029204F636D2030322F32303137000000C8
:10480E000000331F331F331F00000000F806FA06A6
:10481E003707312E352E310000000000331F331FB5
:10482E00331F331F331F331F331F00000000AE0C26
:10483E00FF0CAB0C560D960DD20DF00D5E00BC00AC
:10484E00770100000000D01B361D521B6B1B5D1B39
:10485E00AE1B0D0A006E616E00696E66006F7666A5
:04486E00002E000018
:00000001FF
